:1000000025C7000054C7000052C7000050C70000B9
:100010004EC700004CC700004AC7000048C7000098
:1000200046C7000044C7000042C7000040C70000A8
:100030003EC700003CC700003AC7000038C70000B8
:1000400036C7000034C7000032C7000030C70000C8
:100050002EC700002CC700002AC700000C944314D0
:1000600026C7000024C7000022C7000020C70000E8
:100070001EC700001CC700001AC7000018C70000F8
:1000800016C7000014C7000012C7000010C7000008
:100090000EC700000CC700000AC7000008C7000018
:1000A00006C7000004C7000002C7000000C7000028
:1000B000FEC60000FCC60000FAC60000F8C600003C
:1000C000F6C60000F4C60000F2C60000F0C600004C
:1000D000EEC60000ECC60000EAC60000E8C600005C
:1000E000E6C60000A71AAA1A991A9D1AA11AE11ABF
:1000F000AE1AB21AB81ABC1AC01AC61ACA1ACE1A3E
:10010000E11AD41AD81ADC1A0000210024002700B2
:100110002A002D0030003300010100000401070116
:100120000A0100002200250028002B002E003100CB
:10013000340002010000050108010B010505050559
:10014000070508080808020202020A0A080804044F
:10015000040401010101010101010303030303037D
:100160000303040707070C0C0C0C0C0C0C0C02020C
:10017000020206060606060606060B0B0B0B0B0B09
:100180000B0B010210202008081020401020408096
:10019000020102010804020101020408102040804B
:1001A00080402010080402018004020180402010D9
:1001B0000804020108040201010204081020408022
:1001C000010204081020408000000A0B02090C0DF7
:1001D0000E080703040100000000000000000000FA
:1001E000000000000000000000000000000000000F
:1001F00000000000121110000000000000000000CC
:1002000000000000000000000000000000001100DD
:100210007F01290001007F0128003A0155C002102A
:1002200010C10141C50400228040360168B00100C0
:10023000B102B011B40102B60302023BB701C63AE3
:100240000155F704A9512C82C0020D0DC1024300D3
:10025000C20100C50400480048B40100B603020210
:100260003BE00F0F211C0B0E0849983809110314AD
:100270001000E10F0F2F2B0C0E06477637071104E5
:10028000231E00B00100B30402000000B40100D03E
:1002900003074218D103000710D2020102D3020162
:1002A00002D4020102C005123B000211C10310106A
:1002B00088C50103C60102C80C0032364506163750
:1002C0007577540C00CC0100F603010100CF030048
:1002D0008130ED0464031281E803851078CB053981
:1002E0002C003402F70120EA020000B00100B10244
:1002F000001BB40100C00121C10111C5023F3CC770
:1003000001B5360148F20100260101E00F0F262455
:100310000B0E0954A8460C17090F0700E10F00192E
:100320001B0410072A473903060630380F36010030
:10033000B00100C10410100202C006003500000127
:1003400002C50104D2020104CA0100EA0180B00121
:1003500000B2050C0C003333B70135BB012BC001D3
:1003600004C20201FFC30111C40120C6010FD00263
:10037000A4A1E00ED000050E150D37434709151254
:100380001619E10ED000050D0C062D44400E1C1868
:1003900016193A01557F0AB00103E2013FC001225C
:1003A000E20100B00100C0010AB00100000000003D
:1003B000000000000000000000000000FFFF0F0030
:1003C00000040062080008080003000C01030B5A37
:1003D0000203060903031710040300230503001793
:1003E000060309630703090C08030C1009033222F2
:1003F000100016001100010112000000130001009E
:1004000000013003010137020301000D8002006189
:100410000201B0C1FFFF3200010000010200000133
:1004200003003010090001000C0000009000008063
:100430000F000000100200001102EF001202000085
:1004400013028F01000500000105000002055F0096
:100450000104010004040000FFFF32000700000156
:10046000FFFF320000020000010200000000000057
:10047000000000000000000000000100A4000100D6
:10048000FFFF0A006000002708000808300014027F
:1004900031001537320004063300160E34001122E5
:1004A000350000153600078537000714380003149F
:1004B00039002000900015001000100411003702D0
:1004C000290046002A0046000700000012008901AA
:1004D00013000011FFFF0A001200B9010100000122
:1004E0000200000203003010090001000A000000B1
:1004F0000D0000000E003000610001006A000000E5
:10050000800000008100000082005F009200000176
:1005100093000107FFFF0A0007000001E500F078E3
:10052000010000010200000203003010040000007E
:100530000500000008000702090000000A00000092
:100540000C0000000D0000000F0000001000000073
:100550001100070012000000130000000700010056
:10056000FFFFC8001000901611002702FFFF3200A5
:1005700012000D00FFFF32001300001229000A00D4
:100580002B000D00FFFF32002000000021000000C2
:10059000300000003100040432000300350005047F
:1005A000360008083700070438000303390007073E
:1005B0003C0004053D0008086000002761000100C0
:1005C0006A0000008000000081000000820000003E
:1005D00083000000840000008500000090001000EF
:1005E0009200000007003301E500008000000100D8
:1005F00001000001020000070300301004000000A9
:1006000008000202090000000A0000000C000000BF
:100610000D0000000F000000100000001100070096
:100620001200000013000000FFFF32001000B0179E
:1006300011000700FFFF0A0012003A01FFFF0A0045
:100640001300001A29000C00FFFF0A003000000010
:1006500031000505320004003500060036000707AA
:100660003700050138000200390007073C00040785
:100670003D000708600000A7610001006A0000005B
:100680002100000020000000800000008100000028
:10069000820000008300000084000000850000004C
:1006A00090001000920000009300030095001001DC
:1006B000970000009800000007007301FFFF320060
:1006C00010000000110000001200000013000000E4
:1006D00014000000FFFF2800110018001200216123
:1006E00013006F0014005F4910000008FFFF0A00AC
:1006F00011003B10FFFF320001001C01020000014D
:100700000300301007000000080008080B0000116B
:100710000C0000000F00010D15002000200000005B
:1007200021000000300000003100DB00320000003A
:10073000330000003400DB00350000003600AF005D
:10074000370000003800DB003900000050000000D6
:100750005100080852000A0853000A005400080A11
:1007600055000808560000005700000A58001007FE
:100770005900100707001200FFFF32000700171092
:10078000FF000100F300080000000100010000016B
:1007900002000007030030100800020309000000F7
:1007A00010000000110007001200000013000000FC
:1007B000FFFF32001000B014FFFF0A001100070015
:1007C000FFFF0A0012008E001300000C2900150024
:1007D000FFFF0A0030000000310007013200000076
:1007E000350003023600020437000000380007021B
:1007F000390000003C0003023D000304600000A734
:10080000610001009000290007003301FFFF320062
:10081000150030009A00100011002000100028344C
:100820001200020013003810FFFF2800120012000F
:10083000FFFF28001000203413004530FFFF460062
:1008400030000000310002043200070333000403CB
:1008500034000400350001043600070737000503A3
:1008600038001006390010060100000102000003E4
:1008700003003010080008080A0008006000002784
:100880006100010090003E01920000019300000110
:10089000A0000030A30010000700010007002100A5
:1008A00007002300070033000700330111001A007E
:1008B0001200213113006C0014004942100000089E
:1008C000FFFF0A0011001A01FFFF0A0011001A03BE
:1008D000FFFF0A0011001A07FFFF0A0011001A0F9C
:1008E000FFFF0A0011003A0FFFFF1E000100280160
:1008F000020000010300301007001210080003037B
:100900000B0000110C0000000F0001181500200062
:10091000500001015100030652000804530000007A
:100920005400050655000604560003035700030350
:10093000580010005900001007001200FFFF2800A7
:10094000070013000700170000000000003E5B4F87
:100950005B3E3E6B4F6B3E1C3E7C3E1C183C7E3C1F
:10096000181C577D571C1C5E7F5E1C00183C18002D
:10097000FFE7C3E7FF0018241800FFE7DBE7FF30BD
:10098000483A060E2629792926407F050507407F2B
:1009900005253F5A3CE73C5A7F3E1C1C08081C1C9E
:1009A0003E7F14227F22145F5F005F5F06097F0194
:1009B0007F006689956A606060606094A2FFA2947F
:1009C00008047E040810207E201008082A1C08084D
:1009D0001C2A08081E101010100C1E0C1E0C30389B
:1009E0003E3830060E3E0E06000000000000005F9C
:1009F00000000007000700147F147F14242A7F2AB8
:100A00001223130864623649562050000807030079
:100A1000001C2241000041221C002A1C7F1C2A08C5
:100A2000083E080800807030000808080808000028
:100A300060600020100804023E5149453E00427F9C
:100A4000400072494949462141494D331814127FEB
:100A50001027454545393C4A49493141211109078B
:100A60003649494936464949291E0000140000000C
:100A700040340000000814224114141414140041DE
:100A800022140802015909063E415D594E7C12119B
:100A9000127C7F494949363E414141227F414141D3
:100AA0003E7F494949417F090909013E414151734E
:100AB0007F0808087F00417F41002040413F017FBF
:100AC000081422417F404040407F021C027F7F0487
:100AD00008107F3E4141413E7F090909063E4151D0
:100AE000215E7F09192946264949493203017F01C0
:100AF000033F4040403F1F2040201F3F4038403FC1
:100B0000631408146303047804036159494D4300D6
:100B10007F4141410204081020004141417F04020D
:100B200001020440404040400003070800205454A4
:100B300078407F2844443838444444283844442882
:100B40007F385454541800087E090218A4A49C78D5
:100B50007F0804047800447D40002040403D007F31
:100B60001028440000417F40007C047804787C0811
:100B70000404783844444438FC18242418182424E5
:100B800018FC7C08040408485454542404043F44CA
:100B9000243C4040207C1C2040201C3C4030403CF9
:100BA00044281028444C9090907C4464544C440059
:100BB00008364100000077000000413608000201BD
:100BC0000204023C2623263C1EA1A161123A4040A9
:100BD000207A385454555921555579412254547826
:100BE00042215554784020545579400C1E527212BF
:100BF0003955555559395454545939555454580048
:100C000000457C410002457D420001457C407D124B
:100C100011127DF0282528F07C54554500205454AD
:100C20007C547C0A097F4932494949323A44444458
:100C30003A324A4848303A4141217A3A4240207893
:100C4000009DA0A07D3D4242423D3D4040403D3C94
:100C500024FF2424487E4943662B2FFC2F2BFF09B9
:100C600029F620C0887E09032054547941000044AD
:100C70007D413048484A32384040227A007A0A0A98
:100C8000727D0D19317D2629292F2826292929260B
:100C900030484D4020380808080808080808382F50
:100CA00010C8ACBA2F102834FA00007B00000814DA
:100CB0002A142222142A14085500550055AA55AAB0
:100CC00055AAFF55FF55FF000000FF00101010FF50
:100CD00000141414FF001010FF00FF1010F010F0AB
:100CE000141414FC001414F700FF0000FF00FF149C
:100CF00014F404FC141417101F10101F101F1414E8
:100D0000141F00101010F0000000001F1010101031
:100D10001F10101010F010000000FF101010101025
:100D200010101010FF10000000FF140000FF00FF63
:100D300000001F10170000FC04F4141417101714FF
:100D400014F404F40000FF00F71414141414141421
:100D5000F700F7141414171410101F101F14141494
:100D6000F4141010F010F000001F101F0000001FFE
:100D700014000000FC140000F010F01010FF10FF31
:100D8000141414FF141010101F00000000F010FFC6
:100D9000FFFFFFFFF0F0F0F0F0FFFFFF00000000AA
:100DA00000FFFF0F0F0F0F0F3844443844FC4A4A2E
:100DB0004A347E02020606027E027E0263554941E3
:100DC000633844443C04407E201E2006027E02021A
:100DD00099A5E7A5991C2A492A1C4C7201724C302E
:100DE0004A4D4D303048784830BC625A463D3E4905
:100DF0004949007E0101017E2A2A2A2A2A44445FA9
:100E0000444440514A444040444A51400000FF019C
:100E100003E080FF000008086B6B083612362436AA
:100E2000060F090F0600001818000000101000300F
:100E300040FF0101001F01011E00191D1712003C97
:100E40003C3C3C00000000007C23772311241FBEA3
:100E5000CFEFD1E2DEBFCDBF00E00CBF12E0A0E0DB
:100E6000B2E0E6E9F1E500E00BBF02C007900D92A9
:100E7000A434B107D9F722E0A4E4B2E001C01D9286
:100E8000A93AB207E1F717E0C5E2D7E000E006C0F3
:100E900021970109802FFE010E948726C432D107C5
:100EA00080E00807A9F70E94DB190C94BA28A8C8AB
:100EB0000895FC016370658B84819581268137815B
:100EC000613039F0633029F091878087338722873A
:100ED0000895318720879387828708952F923F92C4
:100EE0004F925F926F927F928F929F92AF92BF923A
:100EF000CF92DF92EF92FF920F931F93CF93DF93E6
:100F0000CDB7DEB76C970FB6F894DEBF0FBECDBF7E
:100F10009C8F8B8F5B011A011F830E833701C9825F
:100F2000DC0158964D915C9159974115510509F096
:100F3000E5C018968D919C911997681779070CF068
:100F4000CAC11A968D919C911B97281639060CF0F0
:100F5000C2C18C2C912CFB0136E0C39EE00DF11D2B
:100F60001124FB87EA871E161F060CF0B4C1C401CA
:100F700033E0880F991F3A95E1F79D878C87820DA2
:100F8000931D181619060CF0A6C157968C91811165
:100F900003C0203B08F02F5FAB8DBC8DED91FC9121
:100FA00011970284F385E02DCD012A8F19952A8DA2
:100FB000B5E02B9F90011124F5013596FF87EE8750
:100FC000BB82AA822501A9014A195B09598B488B6A
:100FD000C10108969B8B8A8BE889F989E40DF51D80
:100FE000E85BF64F9491988761013D822C82A88539
:100FF000A0FF13C0AB8DBC8DED91FC91B981B130D8
:1010000031F40484F585E02D2E813F8116C00684DD
:10101000F785E02DEE80FF801AC0EE81FF816E160D
:101020007F06F1F0AB8DBC8DED91FC91B981B130B3
:1010300051F40484F585E02D9301A601B2018B8D56
:101040009C8D19950DC00684F785E02D73018401F0
:1010500094014C815D816A817B818B8D9C8D19957A
:10106000E885E695E887FFEFCF1ADF0A2C813D81FE
:10107000280D391D3D832C834A895B89C416D5060A
:1010800009F0B5CF5FEF451A550A8A819B81880D1B
:10109000991D9B838A83AE85BF854A165B0609F03E
:1010A0009BCFEE81FF816E167F0609F4F2C0EB8DB7
:1010B000FC8DA081B181F981F13079F4B5016B5FCC
:1010C0007F4F5096ED91FC915197830128E030E0DD
:1010D000A1018B8D9C8D1995DCC06A857B85681973
:1010E00079091E96ED91FC911F9773010C851D8562
:1010F0009401A1018B8D9C8D1995CBC0FA0134967A
:101100009491329765917491291BCB01B7E02B9F85
:10111000800D911D1124FA01259134913B8B2A8B6E
:10112000FC01459154915B834A83FC013296C49043
:10113000319654915E87329614913196D49089817C
:10114000823058F0612E012E000C7708AD2D0D2C49
:10115000000CBB0BB987A88704C019861886612CC0
:10116000712CAB8DBC8DED91FC9111970284F385B0
:10117000E02DCD011995B9818B2E912C689CC00171
:10118000699C900D789C900D1124FC01EA0DFB1DCB
:10119000FD87EC871C82712C612CE12F110FFF0B56
:1011A00095012E0F3F1F3B872A87AC0CB11CA50170
:1011B0004E0F5F1F5F8B4E8BC1018D0D911DD7FCB4
:1011C0009A95998F888F4E85641608F062C0862D97
:1011D00090E048855985480F591F489D9001499DC9
:1011E000300D589D300D1124D901A20DB31DB98BBE
:1011F000A88BAA84BB844C845D84DC80BA85DB1A0E
:10120000E88DF98DE80FF91FFD8BEC8B8D2D8A0D84
:101210002E893F89A216B306B9F1877061F48A81DD
:101220009B810196EA89FB89AA81BB81EA0FFB1F9A
:1012300074909B838A8377FE20C0AB8DBC8DED912B
:10124000FC91B981B13061F40484F585E02D2E81E3
:101250003F814C895D89B5018B8D9C8D19950DC0A1
:101260000684F785E02DEE80FF8084019401488993
:101270005989B2018B8D9C8D1995770CEFEFAE1AC1
:10128000BE0A480C591CC2CF3C813C0D3C83639480
:101290009ACFAB8DBC8DED91FC9111970688F789A3
:1012A000E02DCD016C960FB6F894DEBF0FBECDBF1A
:1012B000DF91CF911F910F91FF90EF90DF90CF9032
:1012C000BF90AF909F908F907F906F905F904F9066
:1012D0003F902F9019946C960FB6F894DEBF0FBE16
:1012E000CDBFDF91CF911F910F91FF90EF90DF90D5
:1012F000CF90BF90AF909F908F907F906F905F90B6
:101300004F903F902F900895AF92BF92CF92EF925F
:10131000FF920F931F93CF93DF93EC01262F888DBD
:10132000998D009709F03FC06A3059F41D861C86DC
:101330002C898E859F8538E0239F800D911D112477
:1013400040C06D3009F4A8C08E898823C1F03C8963
:101350008C859D8546E0349F800D911D1124488524
:101360005985481759075CF41D861C868E859F8514
:1013700048E0349F800D911D11249F878E87EA8855
:10138000FB88088919894E855F856C857D85CC88A9
:10139000CE01A4DD2C898C859D8536E0239F800DB0
:1013A000911D112442C06A3079F41D861C862C8957
:1013B000FC013696E4918E859F852E9F800D911DB0
:1013C00011249F878E8768C06D3009F465C0FC01C9
:1013D00034963491631708F45FC03196E491E617B0
:1013E00008F45AC0FC013296A590B490462F50E004
:1013F000431B510937E0349FB001359F700D112414
:10140000A60EB71EF501329634913196E49133233E
:1014100011F0E1110DC0F5013496E4912C898C8511
:101420009D85E29F800D911D11249D878C8734C07E
:10143000F501359644915E89552311F16C89E32FAE
:10144000F0E0E40FF11D47FDFA956E9FD0016F9F0C
:10145000B00D11244C855D854A0F5B1FE885F98529
:10146000E417F5076CF41D861C86FC013696E491A2
:101470008E859F856E9F800D911D11249F878E877D
:10148000EA88FB88088919894E855F856C857D858A
:10149000CC88CE0123DDBFCF81E090E0DF91CF91FA
:1014A0001F910F91FF90EF90CF90BF90AF90089554
:1014B0006F927F928F929F92AF92BF92CF92DF9264
:1014C000EF92FF920F931F93CF93DF93EC014B01A9
:1014D0005A0169013801E881F9810284F385E02D20
:1014E0001995E881F9810288F389E02D8701960139
:1014F000A501B401CE011995E881F981A501460D38
:10150000571D415051090288F389E02D9601B4011D
:10151000CE011995E881F9810088F189E02D9301C8
:10152000A501B401CE011995E881F981C80CD91C37
:10153000B601615071090088F189E02D9301A50180
:10154000CE011995E881F9810688F789E02DCE0151
:10155000DF91CF911F910F91FF90EF90DF90CF908F
:10156000BF90AF909F908F907F906F901994CF9283
:10157000DF92EF92FF920F931F93CF93DF9300D0F0
:1015800000D0CDB7DEB76C01DC01ED91FC916217A4
:10159000730789F4041715072CF4942F852FA801DD
:1015A000092F182F041B150B98012F5F3F4F048C38
:1015B000F58DE02D12C04017510709F526173707A2
:1015C0002CF4962F872FB901292F382F261B370B84
:1015D0002F5F3F4F068CF78DE02D8701C6011995CF
:1015E00026960FB6F894DEBF0FBECDBFDF91CF9128
:1015F0001F910F91FF90EF90DF90CF90089502849C
:10160000F385E02D2D833E834B835C8369837A834E
:101610001995D601ED91FC910488F589E02D2D8175
:101620003E814B815C8169817A81C6011995D60121
:10163000ED91FC910688F789E02DC60126960FB63C
:10164000F894DEBF0FBECDBFDF91CF911F910F91F8
:10165000FF90EF90DF90CF901994EF92FF920F934D
:101660001F93DC01ED91FC9111971A960D911C913D
:101670001B9718962D913C91199700A0F1A1E02D90
:101680007B0140E050E060E070E019951F910F9100
:10169000FF90EF9008954F925F926F927F928F929A
:1016A0009F92AF92BF92CF92DF92EF92FF920F93F1
:1016B0001F93CF93DF931F921F92CDB7DEB76C01BC
:1016C0005A0139014801DC01ED91FC910284F38556
:1016D000E02D69837A8319956981462E7A81572E88
:1016E000640C751CD601ED91FC91461457046CF402
:1016F0000088F189E02D87019401A501B201C6019E
:101700001995BFEF4B1A5B0AEDCF0688F789E02DDC
:10171000C6010F900F90DF91CF911F910F91FF9015
:10172000EF90DF90CF90BF90AF909F908F907F9081
:101730006F905F904F901994AF92BF92CF92DF92CB
:10174000EF92FF920F931F93CF93DF9300D01F92DE
:10175000CDB7DEB75C016901DC01ED91FC9102843B
:10176000F385E02D4B835C8369837A831995D501DA
:10177000ED91FC9169817A819B012C0D3D1D2150D9
:1017800031090488F589E02D78014B815C818A015B
:10179000C5011995D501ED91FC910688F789E02DD9
:1017A000C5010F900F900F900F90DF91CF911F9177
:1017B0000F91FF90EF90DF90CF90BF90AF90199472
:1017C000AF92BF92CF92DF92EF92FF920F931F934F
:1017D000CF93DF9300D01F92CDB7DEB75C016901D4
:1017E000DC01ED91FC910284F385E02D4B835C8359
:1017F00069837A831995D501ED91FC914B815C81C8
:10180000C40ED51EB1E0CB1AD1080488F589E02DAD
:101810007801860169817A819B01C5011995D501FD
:10182000ED91FC910688F789E02DC5010F900F908E
:101830000F900F90DF91CF911F910F91FF90EF903C
:10184000DF90CF90BF90AF9019940895EF92FF92E0
:101850000F931F93DC01ED91FC9100A0F1A1E02D0D
:1018600019951F910F91FF90EF9008950F931F937B
:10187000DC01ED91FC91068CF78DE02D19951F91FF
:101880000F9108950F931F93DC01ED91FC91048C4F
:10189000F58DE02D19951F910F910895DC01ED91C3
:1018A000FC910084F185E02D199408952F923F92C8
:1018B0004F925F926F927F928F929F92AF92BF9260
:1018C000CF92DF92EF92FF920F931F93CF93DF930C
:1018D00000D0CDB7DEB74C017B836A836A01590122
:1018E00017019801241B350B37FF03C03195219553
:1018F0003109C5014A815B81841B950B97FF03C0A9
:1019000091958195910951E059838217930714F0BD
:1019100019820BC09A2D8B2D5801092F182F9A81EF
:101920008B81DB82CA82C92ED82E8A819B81A81620
:10193000B9065CF49C2D8D2D6801092F182F9A8112
:101940008B81BB82AA82A92EB82E2501AA81BB81D8
:101950004A1A5B0A38016C187D0877FE03C071943F
:1019600061947108720157FE03C0BFEFEB1AFB0AC6
:10197000F594E794C016D1061CF00FEF1FEF1FC0BF
:1019800001E010E01CC0D401ED91FC91B981048408
:10199000F585E02D9101BB23C1F04A815B81B60141
:1019A000C4011995E618F708F7FE04C0C00ED11E51
:1019B000E40CF51CEA81FB813196FB83EA834A81C2
:1019C0005B81A416B506FCF604C0A6016A817B8182
:1019D000E7CF0F900F900F90DF91CF911F910F9154
:1019E000FF90EF90DF90CF90BF90AF909F908F903F
:1019F0007F906F905F904F903F902F900895EF925F
:101A0000FF920F931F93DC01ED91FC9111971A96B1
:101A10000D911C911B9718962D913C91199700A040
:101A2000F1A1E02D7B0140E050E060E070E019950D
:101A30001F910F91FF90EF900895EF92FF920F93F7
:101A40001F93DC01ED91FC9100A0F1A1E02D780144
:101A500001E010E019951F910F91FF90EF9008950C
:101A6000EF92FF920F931F93DC01ED91FC9100A088
:101A7000F1A1E02D7801890121E030E019951F9155
:101A80000F91FF90EF900895089580E090E0089501
:101A90008B988A9820910201277820930201A598BB
:101AA0002EB1277C2EB970910201292F3327F9011D
:101AB000E370FF27A5E0EE0FFF1FAA95E1F7E72BE4
:101AC000E09302017EB1F901EC70FF27EE0FFF1FDA
:101AD000EE0FFF1FE72BEEB974B3F901E071FF279A
:101AE000EE0FFF1FE72BE4BB7EB1F901E072FF2789
:101AF000F595E795F595E795E72BEEB9709102011D
:101B0000207C3327E3E035952795EA95E1F7272BED
:101B1000209302018998899A2091020127782093C5
:101B20000201A5982EB1277C2EB9709102019C016B
:101B300023703327F5E0220F331FFA95E1F7272BA7
:101B4000209302017EB19C012C703327220F331F9A
:101B5000220F331F272B2EB974B39C01207133271A
:101B6000220F331F272B24BB7EB19C012072332709
:101B70003595279535952795272B2EB9709102011C
:101B80009C01207C3327F3E035952795FA95E1F702
:101B9000272B209302018998899AFA01A091440287
:101BA0007FEF760F16160CF0C8C021918A9A3091FB
:101BB0000201377830930201A5983EB1377C3EB9D7
:101BC00060910201322F3370B0E23B9FA0011124DB
:101BD000462B409302016EB1322F3C70B4E03B9F24
:101BE000A0011124462B4EB944B3322F3071330F6C
:101BF000342B34BB6EB1322F3072432F50E05595E9
:101C0000479555954795462B4EB930910201207C5A
:101C1000269526952695232B209302018998899A4B
:101C2000772309F488C0AA2309F485C001968A980D
:101C300020910201277820930201A5982EB1277CDC
:101C40002EB960910201292F3327A901437055272E
:101C5000B5E0440F551FBA95E1F7462B40930201BA
:101C60006EB1A9014C705527440F551F440F551FE5
:101C7000462B4EB964B3A90140715527440F551F37
:101C8000462B44BB6EB1A901407255275595479527
:101C900055954795462B4EB940910201207C33273C
:101CA00053E0359527955A95E1F7242B20930201AF
:101CB0008998899A20910201277820930201A5989A
:101CC0002EB1277C2EB9409102019C01237033274D
:101CD00065E0220F331F6A95E1F7242B2093020160
:101CE0004EB19C012C703327220F331F220F331F5C
:101CF000242B2EB944B39C0120713327220F331FAC
:101D0000242B24BB4EB19C01207233273595279597
:101D100035952795242B2EB9409102019C01207CFA
:101D20003327B3E035952795BA95E1F7242B209317
:101D300002018998899A672F33CF8B9A08958B98DF
:101D40008A98E2E0F1E0808187788083A5988EB15F
:101D5000877C8EB9A081872F99279C012370332718
:101D6000B5E0220F331FBA95E1F72A2B2083AEB1DD
:101D70009C012C703327220F331F220F331F2A2B75
:101D80002EB9A4B39C0120713327220F331F2A2BB5
:101D900024BBAEB19C01207233273595279535952C
:101DA00027952A2B2EB92081807C992733E09595A1
:101DB00087953A95E1F7822B80838998899A80816B
:101DC00087788083A5988EB1877C8EB92081CB01DE
:101DD00083709927A5E0880F991FAA95E1F7822BB8
:101DE00080832EB1CB018C709927880F991F880FA3
:101DF000991F822B8EB924B3CB0180719927880F4C
:101E0000991F822B84BB2EB1CB01807299279595A7
:101E1000879595958795822B8EB98081607C7727F1
:101E2000B3E075956795BA95E1F7682B608389985B
:101E3000899A8A9A808187788083A5988EB1877CD9
:101E40008EB96081852F99279C012370332775E017
:101E5000220F331F7A95E1F7262B20836EB19C0168
:101E60002C703327220F331F220F331F262B2EB93E
:101E700064B39C0120713327220F331F262B24BB10
:101E80006EB19C012072332735952795359527959E
:101E9000262B2EB92081807C9927A3E095958795E4
:101EA000AA95E1F7822B80838998899A8081877827
:101EB0008083A5988EB1877C8EB92081CA018370FA
:101EC0009927B5E0880F991FBA95E1F7822B808397
:101ED0002EB1CA018C709927880F991F880F991FFE
:101EE000822B8EB924B3CA0180719927880F991F5C
:101EF000822B84BB2EB1CA01807299279595879554
:101F000095958795822B8EB98081407C5527A3E0DB
:101F100055954795AA95E1F7482B40838998899A6A
:101F20008B9A0895DF92EF92FF920F931F93CF93B6
:101F3000DF93CDB7DEB72A970FB6F894DEBF0FBE9A
:101F4000CDBF7C01862F8370F701858B962F917012
:101F500060FF03C02681378103C0F70124813581EA
:101F6000F70131872087992319F02481358103C037
:101F7000F70126813781F70133872287823041F0CC
:101F8000833041F0813011F088E405C088E203C05D
:101F900088E901C088EF8A87F701248D358D30FFED
:101FA00003C08A8580588A8731FF04C09A8580E4FF
:101FB00089278A8733FF04C09A8588E089278A8722
:101FC000F701868D978D20FF9DC0109144028431CA
:101FD000F8E69F07F1F49A85892F881F8827881FC4
:101FE0008295880F880F807C96FD02C020E001C09A
:101FF00020E298729A871F828260822B88878BE307
:102000008987AE01495F5F4F63E086EB90E040DD7A
:1020100052C0833629E1920741F0813834E99307B1
:1020200021F0813145E1940701F52A8527FF02C09F
:1020300021602A872A8526FF02C022602A878336EC
:10204000E9E19E0719F48A858F730DC08138F4E9A0
:102050009F0719F48A858F7206C08131954159F521
:102060008A858F7E806C8A8726C0112321F142E009
:1020700050E0F70157A346A326E030E031A720A7A0
:1020800062E270E073A762A755A744A744E050E05E
:1020900057A746A731AB20AB28E030E033AB22ABEB
:1020A00082359245E9F48A8584FD02C0826001C0D0
:1020B00086608A8715C02AE230E0F70137A326A39D
:1020C0008BE290E091A780A74CE250E053A742A793
:1020D00035A724A737A726A791AB80AB93AB82ABDC
:1020E000111103C086E390E002C086E190E0AE01EA
:1020F000465F5F4F61E0CCDC8A8590E0F70193A3F7
:1021000082A302C12A858732F2E99F0790F48532C3
:1021100032E99307C8F4803244E5940709F478C0A3
:102120008339E7E79E0709F473C084359140E9F1EC
:10213000A4C0863233E9930709F46AC0893045EBBD
:10214000940709F09AC064C087E390E0F70195A76F
:1021500084A786E390E097A786A789E390E091ABF8
:1021600080AB88E390E093AB82AB80E290E097A3F2
:1021700086A381E290E091A780A782E290E093A7F6
:1021800082A7822F022E000C990B8827990F881F97
:102190009927982F8827990F26FD03C040E050E02B
:1021A00002C040E051E08C6130C087E390E0F7016D
:1021B00095A784A786E390E097A786A789E390E098
:1021C00091AB80AB88E390E093AB82AB80E290E090
:1021D00097A386A381E290E091A780A782E290E096
:1021E00093A782A7822F022E000C990B8827990FA4
:1021F000881F9927982F8827990F26FD03C040E054
:1022000050E002C040E051E08862482B592B66C084
:1022100040E052E0F70157A346A341E052E051A746
:1022200040A742E052E053A742A740E152E055A741
:1022300044A741E152E057A746A742E152E051AB23
:1022400040AB43E152E053AB42AB27FD03C020E07B
:1022500030E002C020E030E88632F3E99F0731F039
:102260008032944519F040E05AE602C040E055E360
:10227000422B532B60E074E027C080E290E0F7012E
:1022800097A386A381E290E091A780A782E290E0E5
:1022900093A782A780E590E095A784A781E590E0C9
:1022A00097A786A782E590E091AB80AB83E590E0AD
:1022B00093AB82AB27FD03C040E050E002C040E09A
:1022C00050E8576260E670E0C70139DD8A8586FD17
:1022D00003C040E050E002C040E051E061E070E047
:1022E000C7012DDD8A8585FD03C040E050E002C0B6
:1022F00048E050E083FD50614063F70153A342A3DF
:1023000063E070E0C7011BDDF701858980FF1CC019
:10231000848D958D92FD18C086A197A120A531A529
:1023200037A326A391A780A784A595A520A931A9A5
:1023300035A724A791AB80AB86A597A522A933A981
:1023400037A726A793AB82ABF7010285138501500F
:102350001109208531852150310940E050E060E0CD
:1023600070E0C7015AD4F70146815781868D978D59
:102370008732F3E99F0749F4F7012589225022307B
:1023800008F49BC000E010E09AC000E010E020E0FC
:1023900030E0F701648D60FF41C01982D02E0A83BE
:1023A0005B834C831D822E8310914402111103C064
:1023B00083E390E002C08EE090E0AE014F5F5F4F9C
:1023C00066E066DB1982DA82111103C087E390E0D0
:1023D00002C084E190E0AE014F5F5F4F62E058DBE6
:1023E000112389F01982F701868D978D87349348E0
:1023F00019F081E090E002C088E190E0AE014F5F0B
:102400005F4F61E009C0F701848D80FF5DC040E04F
:1024100050E060E083E190E03BDB56C08339F7E7B2
:102420009F0789F160F4803234E5930761F18338C6
:10243000E7E79E0791F08435914089F512C0863216
:1024400023E9920701F128F485529249029748F056
:1024500026C08930954BB9F022C0F70140A151A1A7
:1024600022C0400F511F4150510961E370E0C70184
:1024700066DCA80162E370E0C70161DC40E050E087
:1024800063E370E017C0F70140A151A1426061E031
:1024900074E0C70154DCA80164E074E00BC0F701EC
:1024A00040A151A1426061E670E0C70148DCA8018B
:1024B0006AE670E0C70143DC07C000E210E020E2FA
:1024C00030E0201B310B65CF2A960FB6F894DEBFA3
:1024D0000FBECDBFDF91CF911F910F91FF90EF9075
:1024E000DF900895CF92DF92EF92FF920F931F93A8
:1024F000CF93DF936C017A018B01C0E0D0E0CE1561
:10250000DF0589F0D8016D918D01D601ED91FC9127
:102510000190F081E02DC6011995892B11F47E01FF
:1025200002C02196ECCFC701DF91CF911F910F918F
:10253000FF90EF90DF90CF9008953FB7F89480918F
:10254000650290916602A0916702B091680226B57B
:10255000A89B05C02F3F19F00196A11DB11D3FBFDB
:10256000BA2FA92F982F8827820F911DA11DB11D69
:10257000BC01CD0142E0660F771F881F991F4A9565
:10258000D1F708950E94A628CF93DF931F92CDB76D
:10259000DEB7FC01348D258D229521706227462FF0
:1025A00050E051A340A330FF2CC0209144022223CD
:1025B000E1F0868D978D8734F3E89F0719F0823517
:1025C000924531F4611102C082E007C086E005C087
:1025D000611102C08AE001C088E08983AE014F5FCB
:1025E0005F4F61E081E090E00AC0611103C080E2CA
:1025F00090E002C081E290E040E050E060E048DA24
:102600002EC0FC01268D378D2732F2E93F0780F47A
:10261000253262E93607A0F42032E4E53E07C1F036
:102620002339F7E73F07A1F024353140A9F408C06A
:102630002632E3E93E0761F02930354B69F408C0E2
:10264000440F551F440F551F436167E070E006C0FB
:10265000426061E074E002C061E670E070DB0F9000
:10266000DF91CF910895CF92DF92EF92FF920F9377
:102670001F93CF93DF9300D01F92CDB7DEB78C01AD
:102680007A01690177FD5BC057FD59C0FC01808567
:102690009185681779070CF052C082859385481799
:1026A00059070CF04CC0F801868D978D87329349FD
:1026B00061F4F8018589823021F4F0E2EF0EF11C1B
:1026C00004C0833011F4605E7F4FF801248D86A131
:1026D00097A120FF17C079836A837B836C83AE0147
:1026E0004F5F5F4F64E090E0D3D9F80180A5F98295
:1026F000EA82FB82EC82AE014F5F5F4F64E090E0C4
:10270000C7D90AC0AB01BC01C80119DBF80160A53B
:1027100071A5A701C80113DB80914502882349F008
:10272000C6018F719927880F991FF1ECCF22C82A13
:10273000D92AF80162A573A5A601C80100DB0F9094
:102740000F900F900F90DF91CF911F910F91FF90FD
:10275000EF90DF90CF900895EF92FF920F931F9329
:10276000CF93DF93EC017B018A01888199810097E7
:1027700029F02A813B8124173507F8F4B8016F5FEF
:102780007F4F0E94C227009759F0998388831B834B
:102790000A832C813D81232B81F4FC0110820DC022
:1027A00088819981009711F00E942A271982188246
:1027B0001D821C821B821A8207C01D830C83B701F5
:1027C000888199810E94B328CE01DF91CF911F911A
:1027D0000F91FF90EF900895863308F08653909103
:1027E0007B00282F2870977F922B90937B00877017
:1027F000806480937C0080917A00806480937A006A
:1028000080917A0086FDFCCF80917800209179003C
:1028100090E0922B08958F929F92AF92BF92CF92A9
:10282000DF92EF92FF926B017C0187DE4B015C012E
:10283000C114D104E104F104E9F07FDEDC01CB0135
:1028400088199909AA09BB09883E9340A105B105D9
:1028500078F321E0C21AD108E108F10888EE880E69
:1028600083E0981EA11CB11CC114D104E104F10441
:1028700021F7DECFFF90EF90DF90CF90BF90AF9029
:102880009F908F9008951F920F920FB60F92112470
:102890002F933F938F939F93AF93BF938091610248
:1028A00090916202A0916302B09164023091600243
:1028B00023E0230F2D3720F40196A11DB11D05C083
:1028C00026E8230F0296A11DB11D2093600280937C
:1028D000610290936202A0936302B09364028091BC
:1028E000650290916602A0916702B091680201961C
:1028F000A11DB11D8093650290936602A0936702AB
:10290000B0936802BF91AF919F918F913F912F91AA
:102910000F900FBE0F901F9018950F931F93CF939A
:10292000DF93EC018B01101611060CF01CC1FE01A7
:10293000459154912496FE013297259134914F3F51
:102940008FEF580729F4B90180E090E064DF08C1F7
:102950008B988A9880910201877880930201A598CC
:102960008EB1877C8EB9E0910201852F9927BC0139
:1029700063707727F5E0660F771FFA95E1F76E2B06
:1029800060930201EEB1BC016C707727660F771F70
:10299000660F771F6E2B6EB9E4B3BC0160717727A9
:1029A000660F771F6E2B64BBEEB1BC016072772798
:1029B00075956795759567956E2B6EB96091020157
:1029C000807C9927A3E095958795AA95E1F7862BBA
:1029D000809302018998899A809102018778809377
:1029E0000201A5988EB1877C8EB960910201CA015F
:1029F00083709927B5E0880F991FBA95E1F7862B68
:102A0000809302016EB1CA018C709927880F991FBB
:102A1000880F991F862B8EB964B3CA0180719927DC
:102A2000880F991F862B84BB6EB1CA0180729927CB
:102A30009595879595958795862B8EB980910201FE
:102A4000407C5527A3E055954795AA95E1F7482B7B
:102A5000409302018998899A8A9A80910201877825
:102A600080930201A5988EB1877C8EB96091020196
:102A7000832F9927AC014370552775E0440F551FEC
:102A80007A95E1F7462B409302016EB1AC014C7090
:102A90005527440F551F440F551F462B4EB964B39D
:102AA000AC0140715527440F551F462B44BB6EB1F6
:102AB000AC01407255275595479555954795462B3E
:102AC0004EB940910201807C9927B3E09595879596
:102AD000BA95E1F7842B809302018998899A8091B5
:102AE0000201877880930201A5988EB1877C8EB908
:102AF00040910201C9018370992755E0880F991F01
:102B00005A95E1F7842B809302014EB1C9018C7074
:102B10009927880F991F880F991F842B8EB944B36A
:102B2000C90180719927880F991F842B84BB4EB1EE
:102B3000C901807299279595879595958795842BDE
:102B40008EB960910201207C3327F3E035952795FB
:102B5000FA95E1F7262B209302018998899A8B9A9E
:102B600004501109E0CEDF91CF911F910F9108958C
:102B7000BF92CF92DF92EF92FF920F931F93CF936A
:102B8000DF93CDB7DEB768970FB6F894DEBF0FBE00
:102B9000CDBF8C017B018EEFC82EDD24DA941E148C
:102BA0001F045CF5F80184913196B4900E5F1F4FBD
:102BB0008F3729F0202FDE011196F80107C06B2D09
:102BC00070E080E090E027DEB12C11C09E2F921BB8
:102BD0009B1520F494919D933196F8CF0B0D111D08
:102BE000AE014F5F5F4F6B2D90E00E94480DC60114
:102BF0008B199109E80EF91ED2CF68960FB6F8949A
:102C0000DEBF0FBECDBFDF91CF911F910F91FF901F
:102C1000EF90DF90CF90BF9008958F929F92AF92E8
:102C2000BF92CF92DF92EF92FF920F931F93CF93B9
:102C3000DF9300D01F92CDB7DEB77C014B015A0164
:102C40006901FC01868D978D8732F3E99F0799F41E
:102C5000F7018589823031F4F0E2AF0EB11C005EDD
:102C60001F4F1DC08330D9F420E2820E911C80E2F8
:102C7000C80ED11C14C08632954189F4F7018589AC
:102C800080FF0DC0C801841B950B19F40F5F1F4F07
:102C900006C02617370719F4C80ED91E8A01F70196
:102CA000948D86A177A190FF19C099828A82DB82D8
:102CB000CC82AE014F5F5F4F64E090E00E94480D10
:102CC000F70180A5B982AA821B830C83AE014F5FF6
:102CD0005F4F64E090E00E94480D35C0A401682F6A
:102CE000C7012DD8F70160A571A5A501C70127D897
:102CF000F701848D85FF0EC0858980FF06C0102FE7
:102D00000027A02AB12A850105C0DC2CCC248C2800
:102D10009D286401F70164A575A5A401C7010FD81A
:102D2000F70160A971A9A501C70109D8F70166A536
:102D300077A5A601C70103D8F70162A973A9A80165
:102D4000C7010E949F0E0F900F900F900F90DF9180
:102D5000CF911F910F91FF90EF90DF90CF90BF9098
:102D6000AF909F908F900895AF92BF92CF92DF92D5
:102D7000EF92FF920F931F93CF93DF93EC0180911B
:102D80004502882349F0C7018F719927880F991F41
:102D9000E1ECEE22E82AF92A37FF05C0620F731F23
:102DA000319521953109260F371F77FF02C060E06A
:102DB00070E088859985821793070CF49C0169015E
:102DC000C61AD70A17FF05C0400F511F119501956C
:102DD0001109040F151F57FF02C040E050E08A851B
:102DE0009B85801791070CF48C015801A41AB50A31
:102DF0000150110921503109CE010FDF8B988A98BB
:102E00008AA59BA520910201277820930201A5980D
:102E10002EB1277C2EB960910201292F3327A901F9
:102E20004370552705E0440F551F0A95E1F7462BDF
:102E3000409302016EB1A9014C705527440F551FF4
:102E4000440F551F462B4EB964B3A9014071552755
:102E5000440F551F462B44BB6EB1A9014072552744
:102E60005595479555954795462B4EB9409102018A
:102E7000207C3327A3E035952795AA95E1F7242BED
:102E8000209302018998899A209102012778209342
:102E90000201A5982EB1277C2EB9409102019C0118
:102EA00023703327B5E0220F331FBA95E1F7242BA7
:102EB000209302014EB19C012C703327220F331F47
:102EC000220F331F242B2EB944B39C0120713327CA
:102ED000220F331F242B24BB4EB19C0120723327B9
:102EE0003595279535952795242B2EB920910201EC
:102EF000807C992763E0959587956A95E1F7822B09
:102F0000809302018998899ACA14DB042CF49C2DC1
:102F10008D2D6501A92EB82E8A9A8F2D99279C0197
:102F2000237033272295220F207EAC014C70552749
:102F3000342F330F330FAC0140715527440FBC01C0
:102F40007695679576956795562F587063E09695B8
:102F500087956A95E1F78871B70163707727962F97
:102F60009295990F907EB7016C707727660F660F68
:102F7000F701E071FF277E2F770FD701B695A79550
:102F8000B695A795A870F701B3E0F695E795BA95C1
:102F9000E1F71E2F18711A141B040CF043C0F60140
:102FA000B0910201B778B0930201A598BEB1B77C89
:102FB000BEB9B0910201B22BB0930201BEB1B32BE6
:102FC000BEB9B4B3B42BB4BBBEB1B52BBEB9B091CE
:102FD0000201B82BB09302018998899AB09102013D
:102FE000B778B0930201A598BEB1B77CBEB9B091D5
:102FF0000201B92BB0930201BEB1B62BBEB9B4B376
:10300000B72BB4BBBEB1BA2BBEB9B0910201B12B84
:10301000B09302018998899A319711F6E1E0AE1ACE
:10302000B108B9CF8B9A8C8D80FF08C08E8D9F8D93
:103030008632954189F48D8980FF0EC00A851B85F3
:1030400001501109288539852150310940E050E0AF
:1030500060E070E0CE01E1DDDF91CF911F910F9133
:10306000FF90EF90DF90CF90BF90AF90089581E0F8
:103070008093A402E1E0F1E08081886780839D9ADB
:103080008DB188638DB9809A819A829A839A849A45
:103090008B9A889A899A8C9A62E370E080E090E03B
:1030A000BADB8C9864E670E080E090E0B4DB8C9A48
:1030B00064E670E080E090E0AEDB40E050E060EB82
:1030C00070E089E692E00C949F0E1F93CF93DF93FC
:1030D000EC01162F8091A402811101C0C8DF8B98EA
:1030E0008A9880910201877880930201A5988EB119
:1030F000877C8EB9409102018D2F99279C01237006
:10310000332755E0220F331F5A95E1F7242B2093E4
:1031100002014EB19C012C703327220F331F220F66
:10312000331F242B2EB944B39C0120713327220F67
:10313000331F242B24BB4EB19C01207233273595BD
:10314000279535952795242B2EB920910201807C57
:103150009927F3E095958795FA95E1F7822B80936F
:1031600002018998899A80910201877880930201EF
:10317000A5988EB1877C8EB920910201CE01837013
:103180009927A5E0880F991FAA95E1F7822B8093D4
:1031900002012EB1CE018C709927880F991F880FDC
:1031A000991F822B8EB924B3CE0180719927880F85
:1031B000991F822B84BB2EB1CE01807299279595E1
:1031C000879595958795822B8EB980910201C07C59
:1031D000DD2753E0D595C7955A95E1F7C82BC093E5
:1031E00002018998899A8091010187788093010171
:1031F0009D988DB1877C8DB98A9A61E070E080E0FE
:1032000090E009DB889A8898889888982091000136
:103210006CB1E2B38CB1A0910001889A889A889829
:103220008898889870910001FCB132B34CB15091EC
:103230000001889A115017FFE5CF889A8B9A9091D8
:1032400001019867909301019D9A9DB198639DB982
:103250004870440F440F587198E0599FE0011124C1
:103260009C2F942B3072432F50E055954795492B56
:103270009F2F907396959695942B472F4076429565
:1032800046954770492B887090E0880F991F880FEA
:10329000991FA87138E0A39FD00111248A2B9B2B82
:1032A000E072F0E0F595E7958E2B9F2B607370E050
:1032B0007595679575956795862B972B207630E0E9
:1032C000F5E035952795FA95E1F7822B932B982F0A
:1032D0008827842BDF91CF911F910895FF920F9340
:1032E0001F93CF93DF938C0160E0EFDEEC0161E090
:1032F000C801EBDEF82E62E0C801E7DE00E010E076
:103300001F2DA80160E070E08E0120E030E0302F3A
:10331000222711270027042B152B262B372B492F6B
:1033200050E060E070E0CB01BA01602B712B822B82
:10333000932BDF91CF911F910F91FF9008950F93E1
:103340001F93CF93DF938C0160E0BFDEEC0161E05F
:10335000C801BBDEAC01CE01A0E0B0E0DC019927E2
:10336000882760E070E08C019D01042B152B262B33
:10337000372BC901B801DF91CF911F910F910895AB
:1033800024EB30E030937602209375022CE330E09A
:103390003093780220937702009761F0FC0101904E
:1033A0000020E9F73197AF01481B590BBC0189E6B2
:1033B00092E098C80895CF93DF93CDB7DEB76897B2
:1033C0000FB6F894DEBF0FBECDBF789484B582608F
:1033D00084BD84B5816084BD85B5826085BD85B5B9
:1033E000816085BD80916E00816080936E00109237
:1033F00081008091810082608093810080918100B2
:103400008160809381008091800081608093800042
:103410008091B10084608093B1008091B0008160A0
:103420008093B000809191008260809391008091A0
:1034300091008160809391008091900081608093E1
:1034400090008091A10082608093A1008091A100F2
:1034500081608093A1008091A00081608093A00092
:1034600080912101826080932101809121018160FE
:1034700080932101809120018160809320018091BF
:103480007A00846080937A0080917A0082608093D1
:103490007A0080917A00816080937A0080917A002E
:1034A000806880937A001092C10085E095D9BC01B4
:1034B000990F880B990B611571058105910511F024
:1034C0000E943A2448EB51E0FA01649122E731E08E
:1034D000F9018491882399F090E0880F991FFC01ED
:1034E000E85FFE4FA591B4918E5D9E4FFC01059162
:1034F00014918FB7F8949C91692B6C938FBFEEEF6A
:10350000F1E08491FA014491F9012491222309F414
:1035100066C0882309F455C090E0FC013197E23180
:10352000F10508F04EC08827EE58FF4F8F4F0C94DE
:103530008726809180008F7707C0809180008F7DE3
:1035400003C080918000877F809380003AC084B55B
:103550008F7702C084B58F7D84BD33C08091B00069
:103560008F7703C08091B0008F7D8093B00029C019
:10357000809190008F7707C0809190008F7D03C06D
:1035800080919000877F809390001BC08091A00065
:103590008F7707C08091A0008F7D03C08091A0002D
:1035A000877F8093A0000DC0809120018F7707C096
:1035B000809120018F7D03C080912001877F8093BF
:1035C0002001E22FF0E0EE0FFF1FEE5DFE4FA59110
:1035D000B4918FB7F8949C91492B4C938FBF47DDE2
:1035E00060E080E090E071DD8830F4E59F0711F441
:1035F0000C944723803224E5920711F40C944A235B
:103600008938994811F40C944D2360E087E690E0E6
:103610005CDD8734974411F40C94502381EA90E0E8
:103620008EDE613081E6780711F40C9453236F3FEE
:103630007F4F19F406E215E194C08FEB90E04EDE67
:103640006735E3E87E0711F40C9456236138F4E9FA
:103650007F0711F40C945923613125E1720711F4AD
:103660000C945C23603235E1730711F40C945F23F2
:10367000663285E17807F1F2613895E1790711F456
:103680000C9462236115744111F40C94652384ED4C
:1036900090E055DE6031734511F40C9468238FEE91
:1036A00090E01CDE6732734911F40C946B238EEFAB
:1036B00090E045DEBB27A92F982F872F83359042B6
:1036C00011F40C946E2384E090E039DE9B018111AB
:1036D0001DC0211560E83607C9F48FEF898383E8A0
:1036E0008A8387E58B83AE014F5F5F4F63E089EB91
:1036F00090E00E94480D60E080ED90E0E6DC8939C2
:1037000011F0803989F400E910E92BC0263275E107
:10371000370709F48FCF223585E8380709F4E1C768
:1037200021313C4A09F4E0C783ED90E008DE8B01CB
:10373000872F7359723090F0883981F0873771F094
:10374000863161F0033D110561F0033DE3ED1E0795
:1037500041F060E080E090E0B8DC8C0101151105DB
:1037600041F0033D110541F0033DF3ED1F0731F436
:1037700003C001E413E902C000E910E978DC10920B
:10378000840210928302109388020093870207320A
:1037900022E9120708F09BC0053232E9130708F04E
:1037A000A6C1003163E5160709F44DC108F051C008
:1037B000063285E1180709F43AC150F50530E5E114
:1037C0001E0709F4ADC178F40435114009F032C286
:1037D00082E090E190938602809385026CE970E02C
:1037E0008CEA98E011C2013135E1130709F407C1F1
:1037F0000032154109F01EC283E194E090938602E5
:103800008093850226E0E22EF12C03EA13E018C231
:10381000023076E1170709F49FC138F401381541E9
:1038200009F008C283E194E0B4C10335E0E21E0769
:1038300009F495C10533154409F0FCC180E090E11D
:1038400090938602809385026CE970E080E198E0B5
:10385000DBC1093827E7120709F425C108F509304B
:1038600068E6160709F467C138F40830144509F012
:10387000E1C184E091E156C1043198E6190709F4E9
:10388000FAC00338174709F0D5C182E091E190935F
:1038900086028093850260E970E080E897E0B4C119
:1038A0000639F7E71F0709F48AC128F403391747D7
:1038B00009F4ADC1BFC1073563E8160709F4FFC0BD
:1038C0000039104909F0B6C183E194E1FAC002342D
:1038D00083E9180708F052C0003493E9190708F08B
:1038E0004AC10832E3E91E0709F428C170F5003225
:1038F00023E9120709F414C138F40230134909F01E
:1039000099C183E094E02DC1053273E9170709F4EA
:1039100015C10732134909F08DC183E094E09093FB
:1039200086028093850280E991E0909370028093F3
:103930006F0280EF90E090936E0280936D02AEE193
:10394000EA2EF12C00E313E07BC1013393E9190760
:1039500009F4F7C038F40932134909F06BC183E068
:1039600096E1FFC0053323E9120709F4EAC00833E2
:10397000134909F05FC183E194E0F3C0093864E9B9
:10398000160730F5073874E9170708F01BC101382E
:1039900084E9180709F4FBC00638144909F04AC144
:1039A00083E094E1909386028093850280EE91E01B
:1039B0009093700280936F0280E491E090936E0286
:1039C00080936D026BE3E62EF12C08E412E038C11F
:1039D0000530E5EB1E0709F40DC138F401311C4A2E
:1039E00009F028C183E194E1BCC0093035EB13072D
:1039F00009F40DC10530154C09F4FCC01BC183E06E
:103A000090E0909386028093850280EE91E09093FF
:103A1000700280936F0280E491E090936E02809335
:103A20006D0233E0E32EF12C09EA13E009C183E1D2
:103A300094E090938602809385029CE0E92EF12C1D
:103A400007E913E0FDC083E19EE090938602809336
:103A5000850280EE91E09093700280936F0280E483
:103A600091E090936E0280936D0282E0E82EF12C3B
:103A700005E913E0E5C083E094E09093860280932B
:103A8000850280EE91E09093700280936F0280E453
:103A900091E090936E0280936D0203E0E02EF12C92
:103AA00002E913E0CDC083E194E090938602809315
:103AB000850211E4E12EF12C01E513E0C1C083E0A1
:103AC00094E1909386028093850280EE91E090933A
:103AD000700280936F0280E491E090936E02809375
:103AE0006D02B3E0EB2EF12C0EE413E0A9C084E0EC
:103AF00090E1909386028093850260EC70E080EC08
:103B000096E00E948D148CED90E09093700280936B
:103B10006F0280EB90E090936E0280936D028EC0F6
:103B200084E090E1909386028093850268ED70E0D6
:103B300088EE95E069C082E091E105C080E091E106
:103B400002C080E090E190938602809385026CEC45
:103B500070E08CE195E058C083E195E002C087E118
:103B600094E19093860280938502F3E0EF2EF12C8E
:103B70000DE213E065C083E194E0909386028093A8
:103B80008502E5E6EE2EF12C08EC12E059C087E044
:103B900094E0909386028093850280EE91E090936A
:103BA000700280936F0280E491E090936E028093A4
:103BB0006D0275E4E72EF12C03E812E041C083E0CA
:103BC00094E002C083E194E09093860280938502A2
:103BD00080EE91E09093700280936F0280E491E018
:103BE00090936E0280936D025BE2E52EF12C0DE165
:103BF00012E026C088E090E19093860280938502CF
:103C000060EB70E08CE694E00E948D1417C080E0B9
:103C100090E1909386028093850260EC70E08CEADC
:103C200093E00E948D1480E991E09093700280935C
:103C30006F0204C010926E0210926D0200E010E05C
:103C400020918602822F82958F7090E08170992753
:103C500090938A02809389020115110581F069E031
:103C600070E084E192E00E94B815B701C8010E949B
:103C7000B81566E070E08EE092E00E94B81560E052
:103C800089E692E00E94920F60E089E692E00E944D
:103C9000C4128091870290918802FE0131961F0123
:103CA0008838944909F05EC21092450220EE3FEF39
:103CB00040E050E060E070E089E692E00E9433135B
:103CC000E0909302F09094028091850280FF03C0FF
:103CD0004EE2E42EF12C00E010E020E030E040E085
:103CE00050E060E070E089E692E00E940D1680915D
:103CF000850280FD14C060918F027091900240E0B7
:103D000050E089E692E00E949F0E609191027091CE
:103D1000920240E050E089E692E00E949F0E8B986C
:103D20008A9880910201877880930201A5988EB1CC
:103D3000877C8EB9409102018F2D99279C012370B9
:103D4000332755E0220F331F5A95E1F7242B209398
:103D500002014EB19C012C703327220F331F220F1A
:103D6000331F242B2EB944B39C0120713327220F1B
:103D7000331F242B24BB4EB19C0120723327359571
:103D8000279535952795242B2EB9409102019C014A
:103D9000207C3327F3E035952795FA95E1F7242B1E
:103DA000209302018998899A8091020187788093F3
:103DB0000201A5988EB1877C8EB920910201C701BE
:103DC00083709927A5E0880F991FAA95E1F7822BA8
:103DD000809302012EB1C7018C709927880F991F1B
:103DE000880F991F822B8EB924B3C7018071992740
:103DF000880F991F822B84BB2EB1C701807299272F
:103E00009595879595958795822B8EB9209102017E
:103E1000C701807C992733E0959587953A95E1F71E
:103E2000822B809302018998899A80910101877879
:103E3000809301019D988DB1877C8DB98A9A4091BC
:103E4000850250918602809187029091880246FDFA
:103E50001EC0889A889888988898209100012CB173
:103E600022B32CB120910001889A40FD10C08938FE
:103E700022E1920761F0889A889888988898209122
:103E800000012CB122B32CB120910001889A81311C
:103E9000954161F4889A8898889888988091000163
:103EA0008CB182B38CB180910001889AFA01E470E0
:103EB000FF2744FF90C0889A8898889888988091B6
:103EC00000016CB192B37CB1309100016073262F78
:103ED000269526958076829586958770682F622B29
:103EE0009072892F90E095958795862B672F687043
:103EF000660F660F862B632F687198E0699FB0018B
:103F00001124682B889A889A889888988898209194
:103F100000018CB192B37CB1A09100018073382F65
:103F2000369536952076229526952770822F832BFD
:103F30009072292F30E035952795282B872F887090
:103F4000880F880F282B8A2F887138E0839F700193
:103F50001124822F8E29889A889A88988898889820
:103F6000A09100017CB132B32CB19091000170732B
:103F7000B72FB695B695A076A295A695A7707A2F7D
:103F80007B2B3072A32FB0E0B595A795A72B287097
:103F9000220F220FA22B987178E0979F9001112495
:103FA0002A2B889A8C7FEF2B59F0287F98E0899FE5
:103FB00070011124F22A669566956695E62A81C0FD
:103FC000687FE8E08E9F70011124F62A26952695D9
:103FD0002695E22A76C0889A889888988898D09002
:103FE00000018CB192B3BCB1A0910001889A889A6B
:103FF000889888988898009100013CB122B36CB1F0
:10400000C09000013073A32EB12CB594A794B59441
:10401000A794007610E035E0159507953A95E1F7FD
:104020000A291B292072E22EF12CF594E794E02A4C
:10403000F12A687070E0660F771F660F771F97018F
:10404000262B372B6C2D687178E0679F7001112447
:10405000E22AF32A889A282F2073322F3695369534
:104060008D2D8076829586958770282F232B9072D0
:10407000892F90E095958795822BB870BB0FBB0F69
:104080008B2BA87198E0A99FD00111248A2BF82AC4
:1040900043FF03C0FE24EF24FE24EF2B91F0970191
:1040A000232F3327269526952695C701807E977066
:1040B000822B932BFE2CEE24FF0CFF0CFF0CE82A26
:1040C000F92A80914502882399F09701207CC70145
:1040D0008827947055E0969587955A95E1F7EFE318
:1040E000EE22FF24F694E794E82AF92AE22AF32A3A
:1040F000889A8B9A809101018867809301019D9A2B
:104100008DB188638DB940FD14C000917302109188
:1041100074020150110920917102309172022150F4
:10412000310940E050E060E070E089E692E00E94F2
:104130000D16FFE1EF16FFEFFF06A1F486E089837D
:10414000A10161E08AE390E00E94480D8091850220
:10415000909186028F7E909386028093850281E003
:104160008093450211E01093A30261E089E692E09A
:104170000E94920F84E08093A2021093A1021093F8
:104180007D0261E089E692E00E94C41260E070E086
:1041900089E692E00E94FF0C63E089E692E00E94CB
:1041A000920F8BE30E94EC13BC01990F880B990BC3
:1041B000A3D32B013C018091500290915102A09118
:1041C0005202B09153028090540290905502A090F8
:1041D0005602B0905702009146021091470288158E
:1041E0009905AA05BB0560F40196A11DB11D809338
:1041F000500290935102A0935202B09353021FC0F9
:10420000E0914C02F0914D02EE0FFF1FEE0FFF1FE9
:10421000E00FF11F2081318142815381609148027A
:104220007091490280914A0290914B0272D460933E
:1042300048027093490280934A0290934B02C090C7
:104240004C02D0904D02E0904E02F0904F02C60119
:10425000880F991F880F991FF801E80FF91F4082F6
:10426000518262827382A30192016091480270912F
:10427000490280914A0290914B024CD460934802CB
:104280007093490280934A0290934B022FEFC21A17
:10429000D20AE20AF20AC814D904EA04FB0448F478
:1042A000C0924C02D0924D02E0924E02F0924F0228
:1042B00008C010924C0210924D0210924E021092C1
:1042C0004F028BE30E94EC136091500270915102F7
:1042D00080915202909153026115710581059105FB
:1042E00069F008D39B01AC016091480270914902CA
:1042F00080914A0290914B0271D403C060E070E05B
:10430000CB01D4D49B01AC01A0E5B6E4C1D32FEF1F
:1043100033E040E050E0A0D330935F0220935E0290
:1043200061E089E692E00E94C41289E180937D02F7
:1043300080919F029091A0026FEF7FEF70939E0299
:1043400060939D0270937A026093790290937C024D
:1043500080937B0280915C0290915D02892B19F41D
:1043600086E392E00DD880915C0290915D02019706
:1043700019F488E392E004D880915C0290915D0288
:10438000029721F48AE392E00E94C01980915C02B6
:1043900090915D02039721F48CE392E00E94C01992
:1043A00080915C0290915D02049721F48EE392E08B
:1043B0000E94C01980915C0290915D02059721F4E2
:1043C00080E492E00E94C01980915C0290915D02AD
:1043D000069741F482E492E00E94C01910925D02B7
:1043E00010925C0280915C0290915D020196909324
:1043F0005D0280935C0200915E0210915F020031C9
:1044000077E2170794F480919F029091A002E0EA6E
:10441000F5E0F0939E02E0939D02F0937A02E09320
:10442000790290937C0280937B02C801815197426C
:104430008F33964090F480919F029091A00220ECDF
:104440003FEF30939E0220939D0230937A02209397
:10445000790290937C0280937B02C80181559D4232
:1044600087349D4090F480919F029091A00260E07B
:1044700078EF70939E0260939D0270937A0260932E
:10448000790290937C0280937B02C80189599A43F8
:10449000873B9B4090F480919F029091A002EFE1B6
:1044A000F0E0F0939E02E0939D02F0937A02E09395
:1044B000790290937C0280937B0220EE31E0D80158
:1044C0002ED420E536E440E050E0C6D249015A013E
:1044D000690185E080937D021C8A1B8A1E8A1D8AE1
:1044E000188E1F8A4AE0B101C801CDD1F1010190B7
:1044F0000020E9F73197AF0142195309B101CE010C
:1045000043960E94AC131A8219821C821B821E825F
:104510001D826B897C896115710529F04F89588D41
:10452000C1010E94AC132AE030E030937602209360
:1045300075026CE370E070937802609377024D81AE
:104540005E8169817A8189E692E00E947212898196
:104550009A8180D494012F5F3F4F37FF05C031957A
:1045600021953109B40102C060E070E0E0909D0245
:10457000F0909E0203E310E040E050E089E692E014
:104580000E94B41680919F029091A00210929E0208
:1045900010929D0210927A021092790290937C02FE
:1045A00080937B0225EF31E02819390937FF07C0D6
:1045B00031952195310984EFC82EDD24D394E12C67
:1045C000F12C03E310E040E050E0B60189E692E010
:1045D0000E94B41660915002709151028091520273
:1045E00090915302611571058105910579F082D191
:1045F0009B01AC01609148027091490280914A028E
:1046000090914B02EBD24B015C0103C0812C912CA9
:104610005401209158023091590240915A02509110
:104620005B02C501B40162D187FF1EC080919F0269
:104630009091A00210929E0210929D0210927A0216
:104640001092790290937C0280937B02E12CF12CF2
:104650000FEB10E025EB30E04CE350E060E070E061
:1046600089E692E00E94B416809258029092590214
:10467000A0925A02B0925B028B899C89EBD380E0B6
:1046800090E0892B09F48DCD0E9400008ACD08E0CE
:1046900014E567C800E214E564C809E812E161C8DE
:1046A00007E413E85EC803E619E15BC807E513E811
:1046B00058C801E814E955C801E115E152C800E203
:1046C00015E14FC801E815E14CC804E118E649C8F6
:1046D00000E113E546C807E213E943C803E510E229
:1046E00040C809E817E73DC801E11CEA3AC88091D3
:1046F000460290914702AEC385E090E0A0E0B0E0B2
:104700008093540290935502A0935602B09357029F
:1047100010925002109251021092520210925302C3
:1047200084E190E002D38093460290934702109276
:104730004C0210924D0210924E0210924F021092B3
:1047400048021092490210924A0210924B02FC0158
:1047500044961192119211921192E817F907C9F734
:1047600010926C0210926B0220EF30E030936E02D8
:1047700020936D0280E491E09093700280936F0229
:1047800030937202209371029093740280937302AB
:1047900010927E02109276021092750210927802A8
:1047A0001092770281E080937D022FEF3FEF3093EC
:1047B0007C0220937B0230937A02209379028093CB
:1047C0007F021092800210928202109281028EE08B
:1047D00092E090936A028093690208958F929F926B
:1047E000AF92BF92CF92DF92EF92FF92CF93DF937F
:1047F000EC01688179818A819B8161157105810550
:10480000910521F464E279ED8BE597E02DE133EF3A
:1048100041E050E021D149015A019B01AC01A7EAD6
:10482000B1E436D16B017C01ACEEB4EFA50194018B
:104830003BD1DC01CB018C0D9D1DAE1DBF1DB7FF13
:1048400003C00197A109B04888839983AA83BB83D9
:10485000BC01CD019F77DF91CF91FF90EF90DF906A
:10486000CF90BF90AF909F908F900895B7CF80E08A
:1048700092E0B4CF60930002709301028093020231
:10488000909303020895BB274A3031F4992322F410
:10489000BDE2909581959F4F01C0BB27FB01552735
:1048A000AA27880F991FAA1FA41710F0A41B83958D
:1048B0005051B9F7A05DAA3308F0A95DA193009704
:1048C00079F7B111B1931192CB0100C0DC01FC0169
:1048D000672F71917723E1F7329704C07C916D9334
:1048E00070836291AE17BF07C8F3089540D008F4F3
:1048F00081E00895E89409C097FB3EF49095809577
:10490000709561957F4F8F4F9F4F9923A9F0F92F95
:1049100096E9BB279395F695879577956795B79513
:10492000F111F8CFFAF4BB0F11F460FF1BC06F5FF9
:104930007F4F8F4F9F4F16C0882311F096E911C00B
:10494000772321F09EE8872F762F05C0662371F02C
:1049500096E8862F70E060E02AF09A95660F771F40
:10496000881FDAF7880F9695879597F90895990F1C
:104970000008550FAA0BE0E8FEEF16161706E80729
:10498000F907C0F012161306E407F50798F0621B4A
:10499000730B840B950B39F40A2661F0232B242B1F
:1049A000252B21F408950A2609F4A140A6958FEF3E
:1049B000811D811D089597F99F6780E870E060E090
:1049C00008959FEF80EC089500240A9416161706A8
:1049D00018060906089500240A94121613061406F0
:1049E00005060895092E0394000C11F4882352F053
:1049F000BB0F40F4BF2B11F460FF04C06F5F7F4F0B
:104A00008F4F9F4F089557FD9058440F551F59F0F1
:104A10005F3F71F04795880F97FB991F61F09F3FAB
:104A200079F087950895121613061406551FF2CFD4
:104A30004695F1DF08C0161617061806991FF1CF24
:104A400086957105610508940895E894BB2766274B
:104A50007727CB0197F90895052E97FB16F400945C
:104A60000FD057FD05D024D007FC02D046F408C073
:104A700050954095309521953F4F4F4F5F4F08958A
:104A800090958095709561957F4F8F4F9F4F0895BA
:104A900031D0A59F900DB49F900DA49F800D911DC6
:104AA00011240895B7FFF4CFF3DF821B930B089511
:104AB000A1E21A2EAA1BBB1BFD010DC0AA1FBB1F22
:104AC000EE1FFF1FA217B307E407F50720F0A21B94
:104AD000B30BE40BF50B661F771F881F991F1A9401
:104AE00069F760957095809590959B01AC01BD012B
:104AF000CF010895A29FB001B39FC001A39F700D85
:104B0000811D1124911DB29F700D811D1124911DD5
:104B100008955058BB27AA270ED064CF55DF30F038
:104B20005ADF20F031F49F3F11F41EF44ACF0EF407
:104B3000E095E7FB40CFE92F66DF80F3BA17620705
:104B400073078407950718F071F49EF57ECF0EF475
:104B5000E0950B2EBA2FA02D0B01B90190010C018D
:104B6000CA01A0011124FF27591B99F0593F50F4A5
:104B7000503E68F11A16F040A22F232F342F4427FD
:104B8000585FF3CF469537952795A795F0405395F5
:104B9000C9F77EF41F16BA0B620B730B840BBAF0C5
:104BA0009150A1F0FF0FBB1F661F771F881FC2F730
:104BB0000EC0BA0F621F731F841F48F48795779544
:104BC0006795B795F7959E3F08F0B3CF9395880FFB
:104BD00008F09927EE0F9795879508950CD002CF8E
:104BE000FADE40F0F1DE30F021F45F3F19F0E3CE61
:104BF00051112CCFE6CE07DF98F39923C9F3552343
:104C0000B1F3951B550BBB27AA27621773078407BF
:104C100038F09F5F5F4F220F331F441FAA1FA9F375
:104C200033D00E2E3AF0E0E830D091505040E69567
:104C3000001CCAF729D0FE2F27D0660F771F881FC8
:104C4000BB1F261737074807AB07B0E809F0BB0BB7
:104C5000802DBF01FF2793585F4F2AF09E3F5105DB
:104C600068F0A9CEF3CE5F3FECF3983EDCF3869577
:104C700077956795B795F7959F5FC9F7880F911D51
:104C80009695879597F90895E1E0660F771F881F3D
:104C9000BB1F621773078407BA0720F0621B730BF0
:104CA000840BBA0BEE1F88F7E095089504D0689442
:104CB000B111CCCE0895AFDE88F09F5790F0B92F98
:104CC0009927B751A0F0D1F0660F771F881F991F61
:104CD0001AF0BA95C9F712C0B13081F0B6DEB1E072
:104CE0000895B3CE672F782F8827B85F39F0B93F82
:104CF000CCF3869577956795B395D9F73EF4909563
:104D00008095709561957F4F8F4F9F4F0895EE0F5F
:104D1000FF1F881F8BBF0790F691E02D1994EADEE4
:104D2000B7FF0895821B930B0895CF93DF938230D2
:104D3000910510F482E090E0E091A702F091A802C2
:104D400020E030E0C0E0D0E0309711F140815181A7
:104D500048175907C0F04817590761F482819381B9
:104D6000209719F09B838A832BC09093A80280938D
:104D7000A70226C02115310519F04217530718F470
:104D80009A01BE01DF01EF010280F381E02DDCCF4B
:104D90002115310509F1281B390B2430310590F418
:104DA00012968D919C9113976115710521F0FB016D
:104DB0009383828304C09093A8028093A702FD018D
:104DC000329644C0FD01E20FF31F8193919322506C
:104DD00031092D933C933AC02091A5023091A6024F
:104DE000232B41F420910602309107023093A60252
:104DF0002093A5022091040230910502211531056E
:104E000041F42DB73EB74091080250910902241B8E
:104E1000350BE091A502F091A602E217F307A0F48A
:104E20002E1B3F0B2817390778F0AC014E5F5F4F00
:104E30002417350748F04E0F5F1F5093A60240938A
:104E4000A5028193919302C0E0E0F0E0CF01DF91F1
:104E5000CF9108950F931F93CF93DF93009709F499
:104E60008CC0FC013297138212820091A70210912C
:104E7000A8020115110581F420813181820F931F51
:104E80002091A5023091A6022817390779F5F093F1
:104E9000A602E093A50271C0D80140E050E0AE1731
:104EA000BF0750F412962D913C911397AD01211537
:104EB000310509F1D901F3CF9D01DA013383228352
:104EC00060817181860F971F8217930769F4EC0147
:104ED00028813981260F371F2E5F3F4F3183208372
:104EE0008A819B8193838283452B29F4F093A802C6
:104EF000E093A70242C01396FC93EE931297ED0144
:104F0000499159919E01240F351FE217F30771F45F
:104F100080819181840F951F029611969C938E93A8
:104F20008281938113969C938E931297E0E0F0E038
:104F3000D80112968D919C911397009719F0F80162
:104F40008C01F6CF8D919C9198012E5F3F4F820F7F
:104F5000931F2091A5023091A6022817390769F402
:104F6000309729F41092A8021092A70202C013826F
:104F700012821093A6020093A502DF91CF911F9198
:104F80000F9108956F927F928F929F92AF92BF92EE
:104F9000CF92DF92EF92FF920F931F93CF93DF9305
:104FA000EC01009781F4CB01DF91CF911F910F911C
:104FB000FF90EF90DF90CF90BF90AF909F908F9039
:104FC0007F906F90B2CEFC01E60FF71F9C0122503C
:104FD0003109E217F30708F4A8C0D9010D911C911B
:104FE000119706171707A8F00530110508F49BC0A4
:104FF000C80104978617970708F495C00250110955
:10500000061B170B019311936D937C93CF0122DF45
:105010008AC05B01A01AB10A4C01800E911EA091BA
:10502000A702B091A80240E050E0E12CF12C1097CB
:1050300009F44AC0A815B905D1F56D907C90119777
:10504000630182E0C80ED11CCA14DB0480F1A30105
:105050004A195B096A0182E0C80ED11C1296BC9005
:1050600012971396AC91B5E0CB16D10440F0B28202
:10507000A38351834083D9016D937C930AC00E5F53
:105080001F4FC301800F911FF90191838083EB2D86
:10509000FA2FE114F10431F0D7011396FC93EE934B
:1050A000129741C0F093A802E093A7023CC08D91F3
:1050B0009C9111974817590708F4AC017D0112968D
:1050C0000D90BC91A02DB3CF8091A5029091A60226
:1050D00088159905E1F446175707C8F48091040232
:1050E00090910502009741F48DB79EB74091080258
:1050F00050910902841B950BE817F907B0F4F0935F
:10510000A602E093A502F901718360830CC0CB0174
:105110000CDE7C01009749F0A801BE011BD0CE0136
:1051200099DEC70104C0CE0102C080E090E0DF91AB
:10513000CF911F910F91FF90EF90DF90CF90BF9094
:10514000AF909F908F907F906F90089581E090E056
:10515000F89410C0FB01DC0102C001900D92415097
:105160005040D8F70895FB01DC0101900D9200201A
:10517000E1F7089517E0C5E2D7E000E005C0802F11
:10518000FE01C5DD2196011DC632D10780E008076A
:06519000B1F7F894FFCF17
:10519600010000000000A902800000000000840950
:1051A6007212450D440D3313550C4E0C260C420C51
:1051B600360C560C250C920FC412300D1D0DB4166C
:1051C600FF0CB70A580A4E00310032003300340093
:0451D600350036006A
:00000001FF
