:100000001DC02CC02BC02AC029C051C027C026C08B
:1000100025C024C023C022C021C020C01FC00102AF
:100020000000040001020408102002020202020281
:1000300000000000380000000000370011241FBE3F
:10004000CFE5D2E0DEBFCDBF20E0A0E6B0E001C04A
:100050001D92A936B207E1F792D197C1D1CF61E0E5
:1000600083E0F3D061E084E0F0C061E084E03CD163
:1000700061E083E039D168EE73E080E090E088D001
:1000800060E083E031D168EE73E080E090E080C012
:1000900080B7807F80BF80B7806880BF8CB5806468
:1000A0008CBD8FEF8DBD80B7876080BF08951F9294
:1000B0000F920FB60F9211242F933F938F939F931C
:1000C000AF93BF938091610090916200A091630013
:1000D000B09164003091600026E0230F2D3730F09E
:1000E00029E8230F0396A11DB11D03C00296A11D8F
:1000F000B11D209360008093610090936200A093F3
:100100006300B09364008091650090916600A091B7
:100110006700B09168000196A11DB11D8093650034
:1001200090936600A0936700B0936800BF91AF9171
:100130009F918F913F912F910F900FBE0F901F9025
:1001400018953FB7F8948091650090916600A09152
:100150006700B091680022B708B601FE05C02F3FC6
:1001600019F00196A11DB11D3FBFBA2FA92F982FDD
:100170008827820F911DA11DB11DBC01CD0143E057
:10018000660F771F881F991F4A95D1F70895089524
:10019000CF92DF92EF92FF92CF93DF936B017C01BE
:1001A000D0DFEB01C114D104E104F10479F0EFDFF9
:1001B000C8DF6C1B7D0B683E7340A0F381E0C81A5A
:1001C000D108E108F108C851DC4FF2CFDF91CF919F
:1001D000FF90EF90DF90CF9008958AB582608ABD3E
:1001E0008AB581608ABD83B7887F836083BF789436
:1001F00089B7826089BF4CDF86B18877866886B907
:10020000379A0895813031F48AB58F778ABD8AB5DF
:100210008F7B07C0823039F48AB58F7D8ABD8AB55D
:100220008F7E8ABD0895833039F480B78F7D80BF7B
:1002300080B78F7E80BF0895843031F48CB58F7D78
:100240008CBD8CB58F7E8CBD0895CF93DF9387FFD7
:1002500011C08F7741F0813041F0823041F083301E
:1002600041F08FEF07C085E005C082E003C084E065
:1002700001C083E090E0FC01EC5DFF4F2491FC01A4
:10028000E65DFF4F8491882361F190E0880F991F0C
:10029000FC01EA5CFF4FC591D491FC01E05DFF4F8A
:1002A000A591B491611109C09FB7F89488812095F8
:1002B00082238883EC912E230BC0623061F49FB7B8
:1002C000F8943881822F809583238883EC912E2B9C
:1002D0002C939FBF06C08FB7F894E8812E2B2883FC
:1002E0008FBFDF91CF9108950F931F93CF93DF932B
:1002F0001F92CDB7DEB787FF11C08F7741F08130F5
:1003000041F0823041F0833041F08FEF07C085E04B
:1003100005C082E003C084E001C083E0282F30E004
:10032000F901E25EFF4F8491F901EC5DFF4F1491FA
:10033000F901E65DFF4F04910023D9F0882319F0FD
:10034000698360DF6981E02FF0E0EE0FFF1FE05D61
:10035000FF4FA591B4918FB7611106C0F8949C919D
:10036000E12FE095E92303C0F894EC91E12BEC93A5
:100370008FBF0F90DF91CF911F910F91089581B79B
:0E03800081BF2BDF6CDE71DEFECFF894FFCF65
:00000001FF
