:100000000C9462000C948A000C948A000C948A0070
:100010000C948A000C948A000C948A000C948A0038
:100020000C948A000C948A000C948A000C948A0028
:100030000C948A000C948A000C948A000C948A0018
:100040000C9449050C948A000C9417050C94F10447
:100050000C948A000C948A000C948A000C948A00F8
:100060000C948A000C948A000000000024002700F1
:100070002A0000000000250028002B0000000008D6
:10008000000201000003040700000000000000005F
:1000900000000000230026002900040404040404D6
:1000A0000404020202020202030303030303010227
:1000B00004081020408001020408102001020408F6
:1000C0001020930511241FBECFEFD8E0DEBFCDBFB7
:1000D00011E0A0E0B1E0E4E4F3E102C005900D928C
:1000E000AE36B107D9F722E0AEE6B1E001C01D920D
:1000F000A632B207E1F710E0C2E6D0E004C02197D3
:10010000FE010E949509C136D107C9F70E94E0059A
:100110000C94A0090C9400008F929F92AF92BF9212
:10012000CF92DF92EF92FF92CF93DF93A0911B02C9
:10013000882311F03A2F01C030E080911C0290E03A
:10014000880F991F80579F4FC0902102D0902202A4
:10015000E0902302F090240240E050E0BA01FC015C
:10016000C591D49128812A2323130FC04A015B0132
:100170002FEF821A920AA20AB20A4C155D056E058B
:100180007F0538F4B501A401EACF342F252FCB0128
:1001900004C030E020E080E090E0632F722FDF9118
:1001A000CF91FF90EF90DF90CF90BF90AF909F9056
:1001B0008F900895CF92DF92EF92FF920F931F934B
:1001C000CF93DF936C017A018B01C0E0D0E0CE15B4
:1001D000DF0589F0D8016D918D01D601ED91FC917B
:1001E0000190F081E02DC6010995892B11F47E0163
:1001F00002C02196ECCFC701DF91CF911F910F91E3
:10020000FF90EF90DF90CF900895FC01918D828D4B
:10021000981761F0828DDF01A80FB11D5D968C915A
:10022000928D9F5F9F73928F90E008958FEF9FEF65
:100230000895FC01918D828D981731F0828DE80F21
:10024000F11D858D90E008958FEF9FEF0895FC01DB
:10025000918D228D892F90E0805C9F4F821B9109A8
:100260008F739927089587E791E00E94270121E085
:10027000892B09F420E0822F0895FC01848DDF0191
:10028000A80FB11DA35ABF4F2C91848D90E0019609
:100290008F739927848FA689B7892C93A089B189F8
:1002A0008C9180648C93938D848D981306C0028802
:1002B000F389E02D80818F7D80830895EF92FF92F6
:1002C0000F931F93CF93DF93EC0181E0888F9B8D79
:1002D0008C8D981305C0E889F989808185FD24C03B
:1002E000F62E0B8D10E00F5F1F4F0F731127E02EBE
:1002F0008C8DE8120CC00FB607FCFACFE889F9899B
:10030000808185FFF5CFCE010E943D01F1CF8B8D1D
:10031000FE01E80FF11DE35AFF4FF0820B8FEA89CF
:10032000FB898081806207C0EE89FF896083E8894C
:10033000F98980818064808381E090E0DF91CF91B2
:100340001F910F91FF90EF900895CF93DF93EC01F1
:10035000888D8823C9F0EA89FB89808185FD05C0E5
:10036000A889B9898C9186FD0FC00FB607FCF5CF1F
:10037000808185FFF2CFA889B9898C9185FFEDCF67
:10038000CE010E943D01E7CFDF91CF91089580E03B
:1003900090E0892B29F00E94330181110C94000018
:1003A000089590E0FC01E458FF4F3491FC01E255C0
:1003B000FF4F2491FC01E656FF4FE491EE2309F430
:1003C0003BC0332339F1333091F038F43130A9F0A8
:1003D000323001F584B58F7D12C0373091F038305E
:1003E000A1F03430B9F4809180008F7D03C08091FA
:1003F00080008F77809380000DC084B58F7784BD97
:1004000009C08091B0008F7703C08091B0008F7DCC
:100410008093B000F0E0EE0FFF1FEE58FF4FA59164
:10042000B4918FB7F894EC91611103C020952E23FD
:1004300001C02E2B2C938FBF0895CF93DF9390E0B4
:10044000FC01E255FF4F2491FC01E656FF4F8491D9
:10045000882361F190E0880F991FFC01E859FF4F54
:10046000C591D491FC01EE58FF4FA591B491611153
:1004700009C09FB7F8948881209582238883EC91E6
:100480002E230BC0623061F49FB7F8943881822F1D
:10049000809583238883EC912E2B2C939FBF06C0DD
:1004A0008FB7F894E8812E2B28838FBFDF91CF91EF
:1004B00008953FB7F89480916F0190917001A091D9
:1004C0007101B091720126B5A89B05C02F3F19F0AC
:1004D0000196A11DB11D3FBFBA2FA92F982F8827C4
:1004E000820F911DA11DB11DBC01CD0142E0660F1F
:1004F000771F881F991F4A95D1F708958F929F9271
:10050000AF92BF92CF92DF92EF92FF926B017C018C
:100510000E9459024B015C01C114D104E104F104B1
:10052000F1F00E945902DC01CB0188199909AA094E
:10053000BB09883E9340A105B10570F321E0C21AC2
:10054000D108E108F10888EE880E83E0981EA11C0E
:10055000B11CC114D104E104F10419F7DDCFFF90FF
:10056000EF90DF90CF90BF90AF909F908F900895C5
:10057000CF92DF92EF92FF920F931F93CF93DF936F
:10058000CDB7DEB7C054D1400FB6F894DEBF0FBE72
:10059000CDBF2FB7F8948091730190917401A09111
:1005A0007501B09176012FBF40911D0250911E023E
:1005B00060911F02709120028C019D01041B150B9C
:1005C000260B370BB901A801403D57406105710565
:1005D00018F480912502BCC080931D0290931E02E6
:1005E000A0931F02B09320021092180210921702DB
:1005F00010921602109215021092140261E080917E
:1006000019020E94D1016AEF70E080E090E00E9440
:100610007E0261E0809119020E941D0260E08091DB
:1006200019020E94D10164E170E080E090E00E9434
:100630007E02F89461E0809119020E94D1018BE959
:1006400090E00197F1F762E0809119020E941D028B
:1006500083E290E00197F1F780E00E948C00672B25
:10066000682B692B21F41092250278943EC081E01A
:100670000E948C00672B682B692BA9F38E010F5FFA
:100680001F4F6E012FEBC21A2EEFD20A780180E0C5
:100690000E948C00F701608371838283938381E0E1
:1006A0000E948C00F7016483758386839783F8E04A
:1006B000EF0EF11CEC14FD0451F7789420E030E0CB
:1006C000F8014081518162817381C480D580E680C8
:1006D000F780411551056105710529F0C114D10458
:1006E000E104F10421F41092250280E031C0F90107
:1006F00083E0F595E7958A95E1F7EC5EFD4F808103
:10070000880F4C155D056E057F0508F481608083B8
:100710002F5F3F4F085F1F4F2832310589F6209128
:10072000180230E0409114028091150290E0840F8D
:10073000911D40911602840F911D40911702840F64
:10074000911D99272817390771F681E080932502BA
:10075000C05CDE4F0FB6F894DEBF0FBECDBFDF9199
:10076000CF911F910F91FF90EF90DF90CF90089560
:10077000009769F0FC0101900020E9F73197AF0183
:10078000481B590BBC0187E791E00C94DA0080E02C
:1007900090E008958F929F92AF92BF920F931F9314
:1007A000CF93DF93CDB7DEB7A1970FB6F894DEBF36
:1007B0000FBECDBF19A2423008F44AE08E010F5D92
:1007C0001F4F842E912CA12CB12CA50194010E94C5
:1007D0007309E62FB901CA0101501109EA3014F476
:1007E000E05D01C0E95CD801EC93232B242B252B81
:1007F00061F7C8010E94B803A1960FB6F894DEBF56
:100800000FBECDBFDF91CF911F910F91BF90AF90E1
:100810009F908F9008954F925F926F927F928F92E8
:100820009F92AF92BF92CF92DF92EF92FF926B01B5
:100830007C01B42E9B01AC010E946E09882319F043
:1008400080E191E027C026013701E89477F82FEF87
:100850003FEF4FE75FE7C301B2010E946E098111CC
:100860000DC02FEF3FEF4FE75FE7C301B2010E94DA
:10087000A40718161CF484E191E00CC02FEF3FEFA1
:100880004FE75FE4C701B6010E94FC08181684F424
:1008900088E191E0FF90EF90DF90CF90BF90AF9014
:1008A0009F908F907F906F905F904F900C94B803C3
:1008B0002FEF3FEF4FE75FECC701B6010E94A4079F
:1008C00087FDE6CF20E030E0A901C701B6010E9414
:1008D000A40787FF11C0E0917701F09178010190A2
:1008E000F081E02D6DE287E791E009954C01F7FA80
:1008F000F094F7F8F09402C0812C912CA12C60E0C8
:1009000070E080E09FE3AB1441F020E030E040E293
:1009100051E40E94A907A394F6CF9B01AC01C70143
:10092000B6010E9438072B013C010E941B086B0195
:100930007C010E944A089B01AC01C301B2010E94E4
:1009400037072B013C014AE0C701B6010E94CA03E8
:100950007C01E80CF91CBB2069F0E0917701F09173
:1009600078010190F081E02D6EE287E791E0099532
:10097000E80EF91EDB2CDD2021F120E030E040E222
:1009800051E4C301B2010E9401092B013C010E9404
:100990001B084B01A12CB12C4AE0C501B4010E94F7
:1009A000CA03E80EF91EC501B4010E944A089B0162
:1009B000AC01C301B2010E9437072B013C01DA945C
:1009C000DACFC701FF90EF90DF90CF90BF90AF904C
:1009D0009F908F907F906F905F904F9008950E94AE
:1009E0009B091F920F920FB60F9211242F933F93E2
:1009F0004F935F936F937F938F939F93AF93BF9327
:100A0000EF93FF9387E791E00E943D01FF91EF9103
:100A1000BF91AF919F918F917F916F915F914F9116
:100A20003F912F910F900FBE0F901F9018951F921E
:100A30000F920FB60F9211242F938F939F93EF93E2
:100A4000FF93E0918701F09188018081E0918D0111
:100A5000F0918E0182FD12C09081809190018F5F94
:100A60008F7320919101821751F0E0919001F0E095
:100A7000E958FE4F958F8093900101C08081FF91CE
:100A8000EF919F918F912F910F900FBE0F901F901C
:100A900018951F920F920FB60F9211242F933F9328
:100AA0008F939F93AF93BF93809173019091740143
:100AB000A0917501B091760130916E0123E0230F72
:100AC0002D3720F40196A11DB11D05C026E8230F86
:100AD0000296A11DB11D20936E0180937301909326
:100AE0007401A0937501B093760180916F0190918C
:100AF0007001A0917101B09172010196A11DB11D0B
:100B000080936F0190937001A0937101B093720173
:100B1000BF91AF919F918F913F912F910F900FBEF9
:100B20000F901F901895E7E7F1E01382128288EE8C
:100B300093E0A0E0B0E084839583A683B78384E04C
:100B400091E09183808385EC90E09587848784ECA5
:100B500090E09787868780EC90E0918B808B81EC8A
:100B600090E0938B828B82EC90E0958B848B86EC6B
:100B700090E0978B868B118E128E138E148EA4E1CB
:100B8000B2E083E015968C9315978BE016968C93C4
:100B90001697E1EBF0E0E4911796EC931797EDE9E7
:100BA000F0E0E4911896EC93189740E85EE360E07B
:100BB00070E01D964D935D936D937C9350970895CF
:100BC000789484B5826084BD84B5816084BD85B528
:100BD000826085BD85B5816085BD80916E00816034
:100BE00080936E00109281008091810082608093DA
:100BF00081008091810081608093810080918000DC
:100C00008160809380008091B10084608093B10006
:100C10008091B00081608093B00080917A00846000
:100C200080937A0080917A00826080937A0080912C
:100C30007A00816080937A0080917A008068809346
:100C40007A001092C100E0918701F091880182E062
:100C50008083E0918301F09184011082E09185010D
:100C6000F09186018FEC808310928F01E0918B01CF
:100C7000F0918C0186E08083E0918901F0918A01F6
:100C8000808180618083E0918901F0918A01808177
:100C900088608083E0918901F0918A018081806879
:100CA0008083E0918901F0918A0180818F7D80832A
:100CB0008CE191E00E94B80388E291E00E94B803C1
:100CC00062E0809119020E941D0280E398EFAFEF6D
:100CD000BFEF80931D0290931E02A0931F02B0935A
:100CE000200268EC70E080E090E00E947E020E94AA
:100CF000B8028823B1F180911A028B3041F188F15A
:100D00008551823070F56091140270E080E090E0CF
:100D10000E944A0820E030E040E853E40E940109C4
:100D20006B017C0180911502682F70E080E090E0FB
:100D30000E944C089B01AC01C701B6010E94380714
:100D40002DEC3CEC4CEC5DE30E94010907C0609186
:100D5000140270E080E090E00E944A084B015C01C0
:100D600006C0812C912C90ECA92E9FE7B92E0E94F1
:100D7000B802882309F457C080911A028B3029F0F9
:100D8000E0F18551823058F038C06091160270E071
:100D900080E090E00E944A086B017C0134C0C09161
:100DA00016026C2F6F7770E080E090E00E944C0894
:100DB00020E030E040E853E40E9401096B017C012F
:100DC00080911702682F70E080E090E00E944C084C
:100DD0009B01AC01C701B6010E9438072DEC3CEC29
:100DE0004CEC5DE30E9401096B017C01C7FF0BC065
:100DF000F7FAF094F7F8F09406C0C12CD12C80ECEF
:100E0000E82E8FE7F82EA5019401C501B4010E94D8
:100E10006E09811108C0A7019601C701B6010E94A1
:100E20006E09882339F08BE291E00E94B80388E2D2
:100E300091E018C08BE491E00E94B80342E0C50144
:100E4000B4010E940B0486E591E00E94B8038AE594
:100E500091E00E94B80342E0C701B6010E940B0472
:100E600088E691E00E94B8030E94C7013ACF50582B
:100E7000BB27AA270E944F070C94C2080E94B408FF
:100E800038F00E94BB0820F039F49F3F19F426F493
:100E90000C94B1080EF4E095E7FB0C94AB08E92F35
:100EA0000E94D30858F3BA1762077307840795079F
:100EB00020F079F4A6F50C94F5080EF4E0950B2ECD
:100EC000BA2FA02D0B01B90190010C01CA01A0019C
:100ED0001124FF27591B99F0593F50F4503E68F1F7
:100EE0001A16F040A22F232F342F4427585FF3CF38
:100EF000469537952795A795F0405395C9F77EF409
:100F00001F16BA0B620B730B840BBAF09150A1F051
:100F1000FF0FBB1F661F771F881FC2F70EC0BA0FD7
:100F2000621F731F841F48F4879577956795B7955F
:100F3000F7959E3F08F0B0CF9395880F08F099275A
:100F4000EE0F9795879508950E94870808F481E031
:100F500008950E94BD070C94C2080E94BB0858F077
:100F60000E94B40840F029F45F3F29F00C94AB08CC
:100F700051110C94F6080C94B1080E94D30868F340
:100F80009923B1F3552391F3951B550BBB27AA2742
:100F900062177307840738F09F5F5F4F220F331F7C
:100FA000441FAA1FA9F335D00E2E3AF0E0E832D044
:100FB00091505040E695001CCAF72BD0FE2F29D047
:100FC000660F771F881FBB1F261737074807AB0719
:100FD000B0E809F0BB0B802DBF01FF2793585F4F8E
:100FE0003AF09E3F510578F00C94AB080C94F6084B
:100FF0005F3FE4F3983ED4F3869577956795B79570
:10100000F7959F5FC9F7880F911D9695879597F97A
:101010000895E1E0660F771F881FBB1F62177307F3
:101020008407BA0720F0621B730B840BBA0BEE1F08
:1010300088F7E09508950E94DB0888F09F5798F0A4
:10104000B92F9927B751B0F0E1F0660F771F881FCD
:10105000991F1AF0BA95C9F714C0B13091F00E94E7
:10106000F508B1E008950C94F508672F782F8827CC
:10107000B85F39F0B93FCCF3869577956795B3950E
:10108000D9F73EF490958095709561957F4F8F4F7D
:101090009F4F0895E89409C097FB3EF49095809582
:1010A000709561957F4F8F4F9F4F9923A9F0F92F2E
:1010B00096E9BB279395F695879577956795B795AC
:1010C000F111F8CFFAF4BB0F11F460FF1BC06F5F92
:1010D0007F4F8F4F9F4F16C0882311F096E911C0A4
:1010E000772321F09EE8872F762F05C0662371F0C5
:1010F00096E8862F70E060E02AF09A95660F771FD9
:10110000881FDAF7880F9695879597F90895990FB4
:101110000008550FAA0BE0E8FEEF16161706E807C1
:10112000F907C0F012161306E407F50798F0621BE2
:10113000730B840B950B39F40A2661F0232B242BB7
:10114000252B21F408950A2609F4A140A6958FEFD6
:10115000811D811D089597F99F6780E870E060E028
:1011600008959FEF80EC089500240A941616170640
:1011700018060906089500240A9412161306140688
:1011800005060895092E0394000C11F4882352F0EB
:10119000BB0F40F4BF2B11F460FF04C06F5F7F4FA3
:1011A0008F4F9F4F089557FD9058440F551F59F08A
:1011B0005F3F71F04795880F97FB991F61F09F3F44
:1011C00079F087950895121613061406551FF2CF6D
:1011D0004695F1DF08C0161617061806991FF1CFBD
:1011E00086957105610508940895E894BB276627E4
:1011F0007727CB0197F908950E94870808F48FEFAD
:1012000008950E9414090C94C2080E94B40838F092
:101210000E94BB0820F0952311F00C94AB080C94AD
:10122000B10811240C94F6080E94D30870F3959F1E
:10123000C1F3950F50E0551F629FF001729FBB27CD
:10124000F00DB11D639FAA27F00DB11DAA1F649F69
:101250006627B00DA11D661F829F2227B00DA11D1C
:10126000621F739FB00DA11D621F839FA00D611DA2
:10127000221F749F3327A00D611D231F849F600DC3
:10128000211D822F762F6A2F11249F5750409AF0EC
:10129000F1F088234AF0EE0FFF1FBB1F661F771F78
:1012A000881F91505040A9F79E3F510580F00C9443
:1012B000AB080C94F6085F3FE4F3983ED4F38695B0
:1012C00077956795B795F795E7959F5FC1F7FE2BE3
:1012D000880F911D9695879597F908950E94870824
:1012E000880B990B0895A1E21A2EAA1BBB1BFD01C6
:1012F0000DC0AA1FBB1FEE1FFF1FA217B307E407F5
:10130000F50720F0A21BB30BE40BF50B661F771F4C
:10131000881F991F1A9469F760957095809590952C
:101320009B01AC01BD01CF010895EE0FFF1F059099
:10133000F491E02D099481E090E0F8940C94A009D8
:04134000F894FFCF4F
:10134400000000005E01DA00270105011901A50172
:101354006E616E00696E66006F766600444854786C
:1013640078207465737421000D0A004661696C6508
:101374006420746F20726561642066726F6D20440E
:1013840048542073656E736F72210048756D6964EB
:101394006974793A20002025090054656D706572DE
:0E13A40061747572653A2000202A4320000013
:00000001FF
