:100000000C945D000C9485000C9485000C94850084
:100010000C9485000C9485000C9485000C9485004C
:100020000C9485000C9485000C9485000C9485003C
:100030000C9485000C9485000C9485000C9485002C
:100040000C94F5030C9485000C94C3030C949D034D
:100050000C9485000C9485000C9485000C9485000C
:100060000C9485000C94850000000008000201003B
:100070000003040700000000000000000000000072
:10008000250028002B0000000000240027002A0083
:10009000040404040404040402020202020203032E
:1000A0000303030301020408102040800102040836
:1000B00010200102040810207D0511241FBECFEF7F
:1000C000D8E0DEBFCDBF11E0A0E0B1E0ECE3FFE09F
:1000D00002C005900D92A832B107D9F721E0A8E23D
:1000E000B1E001C01D92A23DB207E1F710E0CDE5FD
:1000F000D0E004C02197FE010E949607CC35D107BD
:10010000C9F70E943F040C949C070C94000090E0F7
:10011000FC01EC55FF4F249180579F4FFC018491C7
:10012000882399F090E0880F991FFC01EA57FF4F50
:10013000A591B491FC01E458FF4F859194918FB73C
:10014000F894EC91E22BEC938FBF0895AF92BF929D
:10015000CF92DF92EF92FF920F931F93CF93DF9393
:100160006C017B018B01040F151FEB015E01AE18C2
:10017000BF08C017D10759F06991D601ED91FC91E4
:100180000190F081E02DC6010995892B79F7C50111
:10019000DF91CF911F910F91FF90EF90DF90CF9063
:1001A000BF90AF900895FC01538D448D252F30E012
:1001B000842F90E0821B930B541710F0CF96089574
:1001C00001970895FC01918D828D981761F0A28DA1
:1001D000AE0FBF2FB11D5D968C91928D9F5F9F7367
:1001E000928F90E008958FEF9FEF0895FC01918D1D
:1001F000828D981731F0828DE80FF11D858D90E08A
:1002000008958FEF9FEF0895FC01918D228D892F26
:1002100090E0805C9F4F821B91098F73992708950E
:1002200085E391E00E94040121E0892B09F420E09C
:10023000822F089580E090E0892B29F00E94100120
:1002400081110C9400000895FC01A48DA80FB92F12
:10025000B11DA35ABF4F2C91848D90E001968F73EE
:100260009927848FA689B7892C93A089B1898C910D
:10027000837080648C93938D848D981306C002885C
:10028000F389E02D80818F7D80830895EF92FF9226
:100290000F931F93CF93DF93EC0181E0888F9B8DA9
:1002A0008C8D98131AC0E889F989808185FF15C063
:1002B0009FB7F894EE89FF896083E889F989808186
:1002C0008370806480839FBF81E090E0DF91CF9155
:1002D0001F910F91FF90EF900895F62E0B8D10E077
:1002E0000F5F1F4F0F731127E02E8C8D8E110CC0E6
:1002F0000FB607FCFACFE889F989808185FFF5CF31
:10030000CE010E942401F1CFEB8DEC0FFD2FF11DEA
:10031000E35AFF4FF0829FB7F8940B8FEA89FB896D
:1003200080818062CFCFCF93DF93EC01888D8823CB
:10033000B9F0AA89BB89E889F9898C9185FD03C048
:10034000808186FD0DC00FB607FCF7CF8C9185FF2D
:10035000F2CF808185FFEDCFCE010E942401E9CF4D
:10036000DF91CF91089590E0FC01E859FF4F24916F
:10037000FC01EC55FF4F3491FC01E057FF4FE49135
:10038000EE23C9F0222339F0233001F1A8F4213003
:1003900019F1223029F1F0E0EE0FFF1FE458FF4F72
:1003A000A591B4918FB7F894EC91611126C0309566
:1003B0003E233C938FBF08952730A9F02830C9F021
:1003C000243049F7809180008F7D03C080918000A8
:1003D0008F7780938000DFCF84B58F7784BDDBCFAC
:1003E00084B58F7DFBCF8091B0008F778093B00074
:1003F000D2CF8091B0008F7DF9CF3E2BDACF3FB7BF
:10040000F89480912D0190912E01A0912F01B0912F
:10041000300126B5A89B05C02F3F19F00196A11DFC
:10042000B11D3FBFBA2FA92F982F8827BC01CD013E
:10043000620F711D811D911D42E0660F771F881F9D
:10044000991F4A95D1F708958F929F92AF92BF92CC
:10045000CF92DF92EF92FF924B015C010E94FF016D
:100460006B017C010E94FF016C197D098E099F09B7
:10047000683E734081059105A8F321E0821A910836
:10048000A108B10888EEC80E83E0D81EE11CF11C5B
:1004900081149104A104B10429F7FF90EF90DF903B
:1004A000CF90BF90AF909F908F900895FC010190E6
:1004B0000020E9F73197AF01481B590BBC0185E3D8
:1004C00091E00C94A6008F929F92AF92BF920F93EF
:1004D0001F93CF93DF93CDB7DEB7A1970FB6F894F4
:1004E000DEBF0FBECDBF19A2423008F44AE08E0134
:1004F0000F5D1F4F842E912CB12CA12CA5019401CE
:100500000E947407E62FB901CA01EA30F4F4E05DF5
:10051000D801EE938D01232B242B252B79F790E026
:1005200080E0109719F0CD010E945602A1960FB6F7
:10053000F894DEBF0FBECDBFDF91CF911F910F9119
:10054000BF90AF909F908F900895E95CE1CF8F921C
:100550009F92AF92BF92CF92DF92EF92FF9280E490
:1005600080937C0080917A00806480937A008091EF
:100570007A0086FDFCCF8091780060917900762F1B
:10058000682F072E000C880B990B0E944D0620E067
:1005900030E040EA50E40E94020720E030E048ECFE
:1005A00052E40E94020720E030E040E85AE30E9453
:1005B000020760933101709332018093330190936D
:1005C000340182E191E00E945602C0903101D09046
:1005D0003201E0903301F0903401A7019601C70188
:1005E000B6010E946F078823B1F089E191E00E9473
:1005F000560285E291E00E94560264E670E080E0D7
:1006000090E0FF90EF90DF90CF90BF90AF909F90E1
:100610008F900C94240246015701E894B7F82FEF0D
:100620003FEF4FE75FE7C501B4010E946F078111FB
:100630000DC02FEF3FEF4FE75FE7C501B4010E9408
:10064000170618161CF48DE191E0D1CF2FEF3FEF84
:100650004FE75FE4C701B6010E94FD0618161CF4BF
:1006600081E291E0C4CF2FEF3FEF4FE75FECC7018E
:10067000B6010E94170687FDF3CF20E030E0A90104
:10068000C701B6010E94170687FF09C06DE285E326
:1006900091E00E944601F7FAF094F7F8F0942AE00E
:1006A00037ED43EA5BE3C701B6010E94AB054B019E
:1006B0005C010E941C066B017C010E944B069B01A1
:1006C000AC01C501B4010E94AA054B015C014AE0DE
:1006D000C701B6010E9463026EE285E391E00E94C9
:1006E000460120E030E040E251E4C501B4010E943F
:1006F00002074B015C010E941C066B01F12CE12CEE
:100700004AE0C701B6010E946302C701B6010E9418
:100710004B069B01AC01C501B4010E94AA0520E073
:1007200030E040E251E40E9402070E941C0690E083
:1007300080E04AE00E9463025CCF1F920F920FB6E6
:100740000F9211242F933F934F935F936F937F9357
:100750008F939F93AF93BF93EF93FF9385E391E0C4
:100760000E942401FF91EF91BF91AF919F918F91D2
:100770007F916F915F914F913F912F910F900FBE9D
:100780000F901F9018951F920F920FB60F92112481
:100790002F938F939F93EF93FF93E0914501F091F7
:1007A00046018081E0914B01F0914C0182FD1BC01C
:1007B000908180914E018F5F8F7320914F0182173E
:1007C00041F0E0914E01F0E0EB5CFE4F958F80939D
:1007D0004E01FF91EF919F918F912F910F900FBE3E
:1007E0000F901F9018958081F4CF1F920F920FB633
:1007F0000F9211242F933F938F939F93AF93BF93A7
:100800008091290190912A01A0912B01B0912C0196
:100810003091280123E0230F2D3758F50196A11DB3
:10082000B11D209328018093290190932A01A09360
:100830002B01B0932C0180912D0190912E01A0915C
:100840002F01B09130010196A11DB11D80932D01A2
:1008500090932E01A0932F01B0933001BF91AF91DF
:100860009F918F913F912F910F900FBE0F901F90EE
:10087000189526E8230F0296A11DB11DD2CF7894BA
:1008800084B5826084BD84B5816084BD85B5826095
:1008900085BD85B5816085BD80916E008160809346
:1008A0006E001092810080918100826080938100AF
:1008B00080918100816080938100809180008160BF
:1008C000809380008091B10084608093B10080911A
:1008D000B00081608093B00080917A008460809342
:1008E0007A0080917A00826080937A0080917A0009
:1008F000816080937A0080917A00806880937A008A
:100900001092C100E0914501F091460182E08083A0
:10091000E0914101F09142011082E0914301F09198
:1009200044018FEC808310924D01E0914901F091D8
:100930004A0186E08083E0914701F091480180817F
:1009400080618083E0914701F09148018081886057
:100950008083E0914701F091480180818068808325
:10096000E0914701F091480180818F7D80838DE087
:100970000E94870082E00E94870083E00E94870037
:1009800084E00E94870085E00E94870061E08DE09E
:100990000E94B30161E082E00E94B30161E083E064
:1009A0000E94B30161E084E00E94B30161E085E050
:1009B0000E94B3016CE271E080E090E00E942402AA
:1009C00060E08DE00E94B30160E082E00E94B3012C
:1009D00060E083E00E94B30160E084E00E94B30124
:1009E00060E085E00E94B3016CE271E080E090E09D
:1009F0000E942402C0E0D0E00E94A702C090310112
:100A0000D0903201E0903301F090340120E030E0EA
:100A100040E252E4C701B6010E94170687FF10C0EA
:100A200061E085E00E94B30160E084E00E94B301D0
:100A300061E083E00E94B30160E082E00E94B301C4
:100A400020E030E040E252E4C701B6010E94FD061A
:100A500018160CF047C020E030E04CE052E4609102
:100A600031017091320180913301909134010E94E3
:100A7000FD061816BCF50E94A70260E085E00E9402
:100A8000B30161E084E00E94B301C0903101D090D5
:100A90003201E0903301F090340120E030E040E298
:100AA00052E4C701B6010E94FD06181644F461E045
:100AB00082E00E94B30160E083E00E94B30120E085
:100AC00030E040E252E4C701B6010E94170687FFFA
:100AD000C2CF60E082E00E94B30161E083E00E9447
:100AE000B301B9CF209709F487CF0E941001882362
:100AF00009F482CF0E9400007FCFE5E3F1E013828A
:100B0000128288EE93E0A0E0B0E084839583A68310
:100B1000B78384E091E09183808385EC90E09587B2
:100B2000848784EC90E09787868780EC90E0918BB7
:100B3000808B81EC90E0938B828B82EC90E0958BA4
:100B4000848B86EC90E0978B868B118E128E138EA1
:100B5000148E08955058BB27AA270E94C2050C94F2
:100B6000C3060E94B50638F00E94BC0620F039F496
:100B70009F3F19F426F40C94B2060EF4E095E7FBBF
:100B80000C94AC06E92F0E94D40658F3BA176207FA
:100B900073078407950720F079F4A6F50C94F60600
:100BA0000EF4E0950B2EBA2FA02D0B01B901900188
:100BB0000C01CA01A0011124FF27591B99F0593FCC
:100BC00050F4503E68F11A16F040A22F232F342F14
:100BD0004427585FF3CF469537952795A795F04062
:100BE0005395C9F77EF41F16BA0B620B730B840B77
:100BF000BAF09150A1F0FF0FBB1F661F771F881F2F
:100C0000C2F70EC0BA0F621F731F841F48F4879586
:100C100077956795B795F7959E3F08F0B0CF939578
:100C2000880F08F09927EE0F9795879508950E94F1
:100C3000880608F481E008950E94DC0688F09F573A
:100C400098F0B92F9927B751B0F0E1F0660F771FF0
:100C5000881F991F1AF0BA95C9F714C0B13091F0E6
:100C60000E94F606B1E008950C94F606672F782FDF
:100C70008827B85F39F0B93FCCF3869577956795AB
:100C8000B395D9F73EF490958095709561957F4F17
:100C90008F4F9F4F0895E89409C097FB3EF49095BD
:100CA0008095709561957F4F8F4F9F4F9923A9F045
:100CB000F92F96E9BB279395F695879577956795D4
:100CC000B795F111F8CFFAF4BB0F11F460FF1BC018
:100CD0006F5F7F4F8F4F9F4F16C0882311F096E9AB
:100CE00011C0772321F09EE8872F762F05C0662359
:100CF00071F096E8862F70E060E02AF09A95660F12
:100D0000771F881FDAF7880F9695879597F90895CA
:100D1000990F0008550FAA0BE0E8FEEF161617060C
:100D2000E807F907C0F012161306E407F50798F074
:100D3000621B730B840B950B39F40A2661F0232B8D
:100D4000242B252B21F408950A2609F4A140A69509
:100D50008FEF811D811D089597F99F6780E870E0EE
:100D600060E008959FEF80EC089500240A94161621
:100D7000170618060906089500240A941216130689
:100D8000140605060895092E0394000C11F4882317
:100D900052F0BB0F40F4BF2B11F460FF04C06F5F33
:100DA0007F4F8F4F9F4F089557FD9058440F551F09
:100DB00059F05F3F71F04795880F97FB991F61F0DD
:100DC0009F3F79F087950895121613061406551F54
:100DD000F2CF4695F1DF08C0161617061806991FC0
:100DE000F1CF86957105610508940895E894BB27B5
:100DF00066277727CB0197F908950E94880608F4A3
:100E00008FEF08950E9415070C94C3060E94B50643
:100E100038F00E94BC0620F0952311F00C94AC062B
:100E20000C94B20611240C94F7060E94D40670F3B9
:100E3000959FC1F3950F50E0551F629FF001729F7F
:100E4000BB27F00DB11D639FAA27F00DB11DAA1F8E
:100E5000649F6627B00DA11D661F829F2227B00DDB
:100E6000A11D621F739FB00DA11D621F839FA00D66
:100E7000611D221F749F3327A00D611D231F849FB6
:100E8000600D211D822F762F6A2F11249F5750400D
:100E90009AF0F1F088234AF0EE0FFF1FBB1F661F88
:100EA000771F881F91505040A9F79E3F510580F051
:100EB0000C94AC060C94F7065F3FE4F3983ED4F331
:100EC000869577956795B795F795E7959F5FC1F7F5
:100ED000FE2B880F911D9695879597F908950E948E
:100EE0008806880B990B0895A1E21A2EAA1BBB1B3A
:100EF000FD010DC0AA1FBB1FEE1FFF1FA217B307E6
:100F0000E407F50720F0A21BB30BE40BF50B661FFB
:100F1000771F881F991F1A9469F7609570958095BF
:100F200090959B01AC01BD01CF010895EE0FFF1F0D
:0C0F30000590F491E02D0994F894FFCF97
:100F3C00000000004601A600D30093010401E2006A
:100F4C00F60074656D70203A006E616E00696E6615
:080F5C00006F7666000D0A002B
:107E0000112484B714BE81FFF0D085E080938100F7
:107E100082E08093C00088E18093C10086E0809377
:107E2000C20080E18093C4008EE0C9D0259A86E02C
:107E300020E33CEF91E0309385002093840096BBD3
:107E4000B09BFECF1D9AA8958150A9F7CC24DD24C4
:107E500088248394B5E0AB2EA1E19A2EF3E0BF2EE7
:107E6000A2D0813461F49FD0082FAFD0023811F036
:107E7000013811F484E001C083E08DD089C08234E0
:107E800011F484E103C0853419F485E0A6D080C0E4
:107E9000853579F488D0E82EFF2485D0082F10E0AE
:107EA000102F00270E291F29000F111F8ED06801E7
:107EB0006FC0863521F484E090D080E0DECF843638
:107EC00009F040C070D06FD0082F6DD080E0C81688
:107ED00080E7D80618F4F601B7BEE895C0E0D1E017
:107EE00062D089930C17E1F7F0E0CF16F0E7DF06D8
:107EF00018F0F601B7BEE89568D007B600FCFDCFD4
:107F0000A601A0E0B1E02C9130E011968C91119780
:107F100090E0982F8827822B932B1296FA010C0160
:107F200087BEE89511244E5F5F4FF1E0A038BF0790
:107F300051F7F601A7BEE89507B600FCFDCF97BE46
:107F4000E89526C08437B1F42ED02DD0F82E2BD052
:107F50003CD0F601EF2C8F010F5F1F4F84911BD097
:107F6000EA94F801C1F70894C11CD11CFA94CF0C13
:107F7000D11C0EC0853739F428D08EE10CD085E9AC
:107F80000AD08FE07ACF813511F488E018D01DD067
:107F900080E101D065CF982F8091C00085FFFCCF94
:107FA0009093C60008958091C00087FFFCCF809118
:107FB000C00084FD01C0A8958091C6000895E0E648
:107FC000F0E098E1908380830895EDDF803219F02E
:107FD00088E0F5DFFFCF84E1DECF1F93182FE3DFCA
:107FE0001150E9F7F2DF1F91089580E0E8DFEE27F6
:047FF000FF270994CA
:027FFE00040479
:0400000300007E007B
:00000001FF
