:100000000C945D000C9485000C9485000C94850084
:100010000C9485000C9485000C9485000C9485004C
:100020000C9485000C9485000C9485000C9485003C
:100030000C9485000C9485000C9485000C9485002C
:100040000C94EB010C9485000C945B020C9435022B
:100050000C9485000C9485000C9485000C9485000C
:100060000C9485000C94850000000008000201003B
:100070000003040700000000000000000000000072
:10008000250028002B0000000000240027002A0083
:10009000040404040404040402020202020203032E
:1000A0000303030301020408102040800102040836
:1000B0001020010204081020790311241FBECFEF85
:1000C000D8E0DEBFCDBF11E0A0E0B1E0E6E6F7E0AA
:1000D00002C005900D92A031B107D9F721E0A0E14F
:1000E000B1E001C01D92A63BB207E1F710E0CDE5FB
:1000F000D0E004C02197FE010E94A603CC35D107B1
:10010000C9F70E948D020C94B1030C94000090E09A
:10011000FC01EC55FF4F2491FC01E057FF4F849107
:10012000882399F090E0880F991FFC01EA57FF4F50
:10013000A591B491FC01E458FF4F859194918FB73C
:10014000F894EC91E22BEC938FBF0895CF92DF925D
:10015000EF92FF920F931F93CF93DF936C017A017D
:100160008B01C0E0D0E0CE15DF0589F0D8016D919C
:100170008D01D601ED91FC910190F081E02DC60139
:100180000995892B11F47E0102C02196ECCFC7019D
:10019000DF91CF911F910F91FF90EF90DF90CF9063
:1001A0000895FC01918D828D981761F0828DDF0199
:1001B000A80FB11D5D968C91928D9F5F9F73928F5A
:1001C00090E008958FEF9FEF0895FC01918D828D4F
:1001D000981731F0828DE80FF11D858D90E008951C
:1001E0008FEF9FEF0895FC01918D228D892F90E074
:1001F000805C9F4F821B91098F739927089580E13E
:1002000091E00E94F30021E0892B09F420E0822F85
:100210000895FC01848DDF01A80FB11DA35ABF4FC3
:100220002C91848D90E001968F739927848FA689F5
:10023000B7892C93A089B1898C9180648C93938D1C
:10024000848D981306C00288F389E02D80818F7D0C
:1002500080830895EF92FF920F931F93CF93DF93C4
:10026000EC0181E0888F9B8D8C8D981305C0E88907
:10027000F989808185FD24C0F62E0B8D10E00F5F7B
:100280001F4F0F731127E02E8C8DE8120CC00FB694
:1002900007FCFACFE889F989808185FFF5CFCE0187
:1002A0000E940901F1CF8B8DFE01E80FF11DE35A89
:1002B000FF4FF0820B8FEA89FB898081806207C043
:1002C000EE89FF896083E889F98980818064808371
:1002D00081E090E0DF91CF911F910F91FF90EF901F
:1002E0000895CF93DF93EC01888D8823C9F0EA89C4
:1002F000FB89808185FD05C0A889B9898C9186FD1F
:100300000FC00FB607FCF5CF808185FFF2CFA8891B
:10031000B9898C9185FFEDCFCE010E940901E7CF0D
:10032000DF91CF91089580E090E0892B29F00E9421
:10033000FF0081110C940000089590E0FC01E85941
:10034000FF4F3491FC01EC55FF4F2491FC01E05725
:10035000FF4FE491EE2309F43BC0332339F13330EE
:1003600091F038F43130A9F0323001F584B58F7D49
:1003700012C0373091F03830A1F03430B9F48091A8
:1003800080008F7D03C0809180008F7780938000F4
:100390000DC084B58F7784BD09C08091B0008F7780
:1003A00003C08091B0008F7D8093B000F0E0EE0F2D
:1003B000FF1FE458FF4FA591B4918FB7F894EC91CB
:1003C000611103C020952E2301C02E2B2C938FBFCB
:1003D00008950E94AC031F920F920FB60F92112442
:1003E0002F933F938F939F93AF93BF938091B201CD
:1003F0009091B301A091B401B091B5013091B101D8
:1004000023E0230F2D3720F40196A11DB11D05C057
:1004100026E8230F0296A11DB11D2093B101809300
:10042000B2019093B301A093B401B093B501809150
:10043000AD019091AE01A091AF01B091B0010196D4
:10044000A11DB11D8093AD019093AE01A093AF01AA
:10045000B093B001BF91AF919F918F913F912F9138
:100460000F900FBE0F901F9018951F920F920FB60E
:100470000F9211242F933F934F935F936F937F932A
:100480008F939F93AF93BF93EF93FF9380E191E09E
:100490000E940901FF91EF91BF91AF919F918F91C0
:1004A0007F916F915F914F913F912F910F900FBE70
:1004B0000F901F9018951F920F920FB60F92112454
:1004C0002F938F939F93EF93FF93E0912001F091EF
:1004D00021018081E0912601F091270182FD12C067
:1004E0009081809129018F5F8F7320912A0182175B
:1004F00051F0E0912901F0E0E05FFE4F958F80938D
:10050000290101C08081FF91EF919F918F912F91DF
:100510000F900FBE0F901F901895789484B582604D
:1005200084BD84B5816084BD85B5826085BD85B597
:10053000816085BD80916E00816080936E00109215
:100540008100809181008260809381008091810090
:100550008160809381008091800081608093800021
:100560008091B10084608093B1008091B00081607F
:100570008093B00080917A00846080937A008091AB
:100580007A00826080937A0080917A008160809303
:100590007A0080917A00806880937A001092C1007E
:1005A000E0912001F091210182E08083E0911C0123
:1005B000F0911D011082E0911E01F0911F018FEC5E
:1005C000808310922801E0912401F091250186E0BA
:1005D0008083E0912201F0912301808180618083FA
:1005E000E0912201F0912301808188608083E09175
:1005F0002201F0912301808180688083E0912201B3
:10060000F091230180818F7D808382E00E948700AA
:1006100083E00E94870084E00E94870085E00E94BA
:10062000870086E00E94870087E00E94870080E1C3
:1006300091E00E94F300181619060CF03FC080E10B
:1006400091E00E94D100EC0161E086E00E949D01F2
:1006500061E087E00E949D01C337D105B1F064F4E9
:10066000C136D105C1F0C436D10581F561E082E023
:100670000E949D0160E01DC0C737D10539F560E0DB
:1006800082E00E949D0161E014C061E082E00E946E
:100690009D0160E005C060E082E00E949D0161E094
:1006A00083E00E949D0161E084E00E949D0160E082
:1006B0001AC083E00E949D0160E011C060E086E006
:1006C0000E949D0160E087E00E949D0161E082E060
:1006D0000E949D0161E083E00E949D0161E084E051
:1006E0000E949D0161E085E00E949D010E949301AE
:1006F0009ECFE0E1F1E01382128288EE93E0A0E069
:10070000B0E084839583A683B78384E091E09183EE
:10071000808385EC90E09587848784EC90E09787D0
:10072000868780EC90E0918B808B81EC90E0938BBE
:10073000828B82EC90E0958B848B86EC90E0978B9B
:10074000868B118E128E138E148E0895EE0FFF1F5E
:100750000590F491E02D099481E090E0F8940C94D8
:06076000B103F894FFCF85
:10076600000000002A01A600F300D100E500710197
:107E0000112484B714BE81FFF0D085E080938100F7
:107E100082E08093C00088E18093C10086E0809377
:107E2000C20080E18093C4008EE0C9D0259A86E02C
:107E300020E33CEF91E0309385002093840096BBD3
:107E4000B09BFECF1D9AA8958150A9F7CC24DD24C4
:107E500088248394B5E0AB2EA1E19A2EF3E0BF2EE7
:107E6000A2D0813461F49FD0082FAFD0023811F036
:107E7000013811F484E001C083E08DD089C08234E0
:107E800011F484E103C0853419F485E0A6D080C0E4
:107E9000853579F488D0E82EFF2485D0082F10E0AE
:107EA000102F00270E291F29000F111F8ED06801E7
:107EB0006FC0863521F484E090D080E0DECF843638
:107EC00009F040C070D06FD0082F6DD080E0C81688
:107ED00080E7D80618F4F601B7BEE895C0E0D1E017
:107EE00062D089930C17E1F7F0E0CF16F0E7DF06D8
:107EF00018F0F601B7BEE89568D007B600FCFDCFD4
:107F0000A601A0E0B1E02C9130E011968C91119780
:107F100090E0982F8827822B932B1296FA010C0160
:107F200087BEE89511244E5F5F4FF1E0A038BF0790
:107F300051F7F601A7BEE89507B600FCFDCF97BE46
:107F4000E89526C08437B1F42ED02DD0F82E2BD052
:107F50003CD0F601EF2C8F010F5F1F4F84911BD097
:107F6000EA94F801C1F70894C11CD11CFA94CF0C13
:107F7000D11C0EC0853739F428D08EE10CD085E9AC
:107F80000AD08FE07ACF813511F488E018D01DD067
:107F900080E101D065CF982F8091C00085FFFCCF94
:107FA0009093C60008958091C00087FFFCCF809118
:107FB000C00084FD01C0A8958091C6000895E0E648
:107FC000F0E098E1908380830895EDDF803219F02E
:107FD00088E0F5DFFFCF84E1DECF1F93182FE3DFCA
:107FE0001150E9F7F2DF1F91089580E0E8DFEE27F6
:047FF000FF270994CA
:027FFE00040479
:0400000300007E007B
:00000001FF
